{
	"data": {
		"bytecode": {
			"linkReferences": {},
			"object": "6080604052670de0b6b3a76400006002553480156200001d57600080fd5b50604051620022a3380380620022a38339818101604052810190620000439190620001e1565b6200006362000057620000ab60201b60201c565b620000b360201b60201c565b80600160006101000a81548173ffffffffffffffffffffffffffffffffffffffff021916908373ffffffffffffffffffffffffffffffffffffffff1602179055505062000213565b600033905090565b60008060009054906101000a900473ffffffffffffffffffffffffffffffffffffffff169050816000806101000a81548173ffffffffffffffffffffffffffffffffffffffff021916908373ffffffffffffffffffffffffffffffffffffffff1602179055508173ffffffffffffffffffffffffffffffffffffffff168173ffffffffffffffffffffffffffffffffffffffff167f8be0079c531659141344cd1fd0a4f28419497f9722a3daafe3b4186f6b6457e060405160405180910390a35050565b600080fd5b600073ffffffffffffffffffffffffffffffffffffffff82169050919050565b6000620001a9826200017c565b9050919050565b620001bb816200019c565b8114620001c757600080fd5b50565b600081519050620001db81620001b0565b92915050565b600060208284031215620001fa57620001f962000177565b5b60006200020a84828501620001ca565b91505092915050565b61208080620002236000396000f3fe608060405234801561001057600080fd5b50600436106100f55760003560e01c80635cf504e111610097578063dce2556f11610066578063dce2556f14610224578063f046395a14610240578063f2fde38b14610273578063fc0c546a1461028f576100f5565b80635cf504e1146101c4578063715018a6146101e05780638da5cb5b146101ea57806391b7f5ed14610208576100f5565b806324e9edb0116100d357806324e9edb014610152578063365b98b21461015c5780633bed33ce1461018c578063419fa793146101a8576100f5565b806302778fc0146100fa578063111eb8b1146101045780631d0806ae14610134575b600080fd5b6101026102ad565b005b61011e60048036038101906101199190611669565b6104ee565b60405161012b91906116af565b60405180910390f35b61013c610592565b60405161014991906116af565b60405180910390f35b61015a610598565b005b610176600480360381019061017191906116f6565b6107a2565b6040516101839190611732565b60405180910390f35b6101a660048036038101906101a191906116f6565b6107e1565b005b6101c260048036038101906101bd919061174d565b6108f0565b005b6101de60048036038101906101d991906116f6565b610b46565b005b6101e8610e69565b005b6101f2610e7d565b6040516101ff9190611732565b60405180910390f35b610222600480360381019061021d91906116f6565b610ea6565b005b61023e600480360381019061023991906116f6565b610ef5565b005b61025a60048036038101906102559190611669565b611295565b60405161026a94939291906117a8565b60405180910390f35b61028d60048036038101906102889190611669565b6112d2565b005b610297611355565b6040516102a4919061184c565b60405180910390f35b6102b561137b565b6000600160009054906101000a900473ffffffffffffffffffffffffffffffffffffffff1673ffffffffffffffffffffffffffffffffffffffff166370a08231306040518263ffffffff1660e01b81526004016103129190611732565b602060405180830381865afa15801561032f573d6000803e3d6000fd5b505050506040513d601f19601f82011682018060405250810190610353919061187c565b9050600061035f6113f9565b90508082116103a3576040517f08c379a000000000000000000000000000000000000000000000000000000000815260040161039a90611906565b60405180910390fd5b600081836103b19190611955565b9050600160009054906101000a900473ffffffffffffffffffffffffffffffffffffffff1673ffffffffffffffffffffffffffffffffffffffff1663a9059cbb6103f9610e7d565b836040518363ffffffff1660e01b8152600401610417929190611989565b6020604051808303816000875af1158015610436573d6000803e3d6000fd5b505050506040513d601f19601f8201168201806040525081019061045a91906119de565b50600160009054906101000a900473ffffffffffffffffffffffffffffffffffffffff1673ffffffffffffffffffffffffffffffffffffffff1661049c610e7d565b73ffffffffffffffffffffffffffffffffffffffff167f6337ed398c0e8467698c581374fdce4db14922df487b5a39483079f5f59b60a4836040516104e191906116af565b60405180910390a3505050565b600080600360008473ffffffffffffffffffffffffffffffffffffffff1673ffffffffffffffffffffffffffffffffffffffff168152602001908152602001600020905060008160010154426105449190611955565b90506201518082600201546105599190611a0b565b811061056a5760009250505061058d565b8062015180836002015461057e9190611a0b565b6105889190611955565b925050505b919050565b60025481565b6000600360003373ffffffffffffffffffffffffffffffffffffffff1673ffffffffffffffffffffffffffffffffffffffff168152602001908152602001600020905060008160010154426105ed9190611955565b90506201518082600201546106029190611a0b565b8110610643576040517f08c379a000000000000000000000000000000000000000000000000000000000815260040161063a90611a99565b60405180910390fd5b60006201518083600201546106589190611a0b565b8262015180856002015461066c9190611a0b565b6106769190611955565b84600001546106859190611a0b565b61068f9190611ae8565b905060008360030160006101000a81548160ff021916908315150217905550600160009054906101000a900473ffffffffffffffffffffffffffffffffffffffff1673ffffffffffffffffffffffffffffffffffffffff1663a9059cbb33836040518363ffffffff1660e01b815260040161070b929190611989565b6020604051808303816000875af115801561072a573d6000803e3d6000fd5b505050506040513d601f19601f8201168201806040525081019061074e91906119de565b503373ffffffffffffffffffffffffffffffffffffffff167f06aa12c0ad65927b4a753d119c26e490d3c4a4e11cb631b43131a709dc1e59178260405161079591906116af565b60405180910390a2505050565b600481815481106107b257600080fd5b906000526020600020016000915054906101000a900473ffffffffffffffffffffffffffffffffffffffff1681565b6107e961137b565b600047905081811015610831576040517f08c379a000000000000000000000000000000000000000000000000000000000815260040161082890611b65565b60405180910390fd5b610839610e7d565b73ffffffffffffffffffffffffffffffffffffffff166108fc839081150290604051600060405180830381858888f1935050505015801561087e573d6000803e3d6000fd5b50600073ffffffffffffffffffffffffffffffffffffffff1661089f610e7d565b73ffffffffffffffffffffffffffffffffffffffff167f6337ed398c0e8467698c581374fdce4db14922df487b5a39483079f5f59b60a4846040516108e491906116af565b60405180910390a35050565b6108f861137b565b600160009054906101000a900473ffffffffffffffffffffffffffffffffffffffff1673ffffffffffffffffffffffffffffffffffffffff168273ffffffffffffffffffffffffffffffffffffffff1603610988576040517f08c379a000000000000000000000000000000000000000000000000000000000815260040161097f90611bd1565b60405180910390fd5b600082905060008173ffffffffffffffffffffffffffffffffffffffff166370a08231306040518263ffffffff1660e01b81526004016109c89190611732565b602060405180830381865afa1580156109e5573d6000803e3d6000fd5b505050506040513d601f19601f82011682018060405250810190610a09919061187c565b905082811015610a4e576040517f08c379a0000000000000000000000000000000000000000000000000000000008152600401610a4590611b65565b60405180910390fd5b8173ffffffffffffffffffffffffffffffffffffffff1663a9059cbb610a72610e7d565b856040518363ffffffff1660e01b8152600401610a90929190611989565b6020604051808303816000875af1158015610aaf573d6000803e3d6000fd5b505050506040513d601f19601f82011682018060405250810190610ad391906119de565b508373ffffffffffffffffffffffffffffffffffffffff16610af3610e7d565b73ffffffffffffffffffffffffffffffffffffffff167f6337ed398c0e8467698c581374fdce4db14922df487b5a39483079f5f59b60a485604051610b3891906116af565b60405180910390a350505050565b60008111610b89576040517f08c379a0000000000000000000000000000000000000000000000000000000008152600401610b8090611c3d565b60405180910390fd5b600360003373ffffffffffffffffffffffffffffffffffffffff1673ffffffffffffffffffffffffffffffffffffffff16815260200190815260200160002060030160009054906101000a900460ff1615610c19576040517f08c379a0000000000000000000000000000000000000000000000000000000008152600401610c1090611ca9565b60405180910390fd5b600081600254610c299190611a0b565b9050600160009054906101000a900473ffffffffffffffffffffffffffffffffffffffff1673ffffffffffffffffffffffffffffffffffffffff166323b872dd3330846040518463ffffffff1660e01b8152600401610c8a93929190611cc9565b6020604051808303816000875af1158015610ca9573d6000803e3d6000fd5b505050506040513d601f19601f82011682018060405250810190610ccd91906119de565b610d0c576040517f08c379a0000000000000000000000000000000000000000000000000000000008152600401610d0390611d4c565b60405180910390fd5b604051806080016040528082815260200142815260200183815260200160011515815250600360003373ffffffffffffffffffffffffffffffffffffffff1673ffffffffffffffffffffffffffffffffffffffff16815260200190815260200160002060008201518160000155602082015181600101556040820151816002015560608201518160030160006101000a81548160ff0219169083151502179055509050506004339080600181540180825580915050600190039060005260206000200160009091909190916101000a81548173ffffffffffffffffffffffffffffffffffffffff021916908373ffffffffffffffffffffffffffffffffffffffff1602179055503373ffffffffffffffffffffffffffffffffffffffff167ffa97702998bf8295e2a92740302950ee32d4ecb485f228852fc37d7167f69197824285604051610e5d93929190611d6c565b60405180910390a25050565b610e7161137b565b610e7b600061153a565b565b60008060009054906101000a900473ffffffffffffffffffffffffffffffffffffffff16905090565b610eae61137b565b806002819055507f2bce37c591c5b0d254c3056688b080a088f160fff82b6e79f456c8a20d5570f66002544283604051610eea93929190611d6c565b60405180910390a150565b60008111610f38576040517f08c379a0000000000000000000000000000000000000000000000000000000008152600401610f2f90611e15565b60405180910390fd5b6000600360003373ffffffffffffffffffffffffffffffffffffffff1673ffffffffffffffffffffffffffffffffffffffff1681526020019081526020016000206000015411610fbd576040517f08c379a0000000000000000000000000000000000000000000000000000000008152600401610fb490611e81565b60405180910390fd5b6000600360003373ffffffffffffffffffffffffffffffffffffffff1673ffffffffffffffffffffffffffffffffffffffff168152602001908152602001600020905060008160010154426110129190611955565b905060006201518083600201546110299190611a0b565b8262015180856002015461103d9190611a0b565b6110479190611955565b84600001546110569190611a0b565b6110609190611ae8565b90506000846002546110729190611a0b565b905060008185600001546110869190611ea1565b9050600086866002015461109a9190611ea1565b9050600160009054906101000a900473ffffffffffffffffffffffffffffffffffffffff1673ffffffffffffffffffffffffffffffffffffffff166323b872dd3330866040518463ffffffff1660e01b81526004016110fb93929190611cc9565b6020604051808303816000875af115801561111a573d6000803e3d6000fd5b505050506040513d601f19601f8201168201806040525081019061113e91906119de565b61117d576040517f08c379a000000000000000000000000000000000000000000000000000000000815260040161117490611d4c565b60405180910390fd5b8186600001819055508086600201819055503373ffffffffffffffffffffffffffffffffffffffff167ffa97702998bf8295e2a92740302950ee32d4ecb485f228852fc37d7167f691978342846040516111d993929190611d6c565b60405180910390a2600084111561128c57600160009054906101000a900473ffffffffffffffffffffffffffffffffffffffff1673ffffffffffffffffffffffffffffffffffffffff1663a9059cbb33866040518363ffffffff1660e01b8152600401611247929190611989565b6020604051808303816000875af1158015611266573d6000803e3d6000fd5b505050506040513d601f19601f8201168201806040525081019061128a91906119de565b505b50505050505050565b60036020528060005260406000206000915090508060000154908060010154908060020154908060030160009054906101000a900460ff16905084565b6112da61137b565b600073ffffffffffffffffffffffffffffffffffffffff168173ffffffffffffffffffffffffffffffffffffffff1603611349576040517f08c379a000000000000000000000000000000000000000000000000000000000815260040161134090611f47565b60405180910390fd5b6113528161153a565b50565b600160009054906101000a900473ffffffffffffffffffffffffffffffffffffffff1681565b6113836115fe565b73ffffffffffffffffffffffffffffffffffffffff166113a1610e7d565b73ffffffffffffffffffffffffffffffffffffffff16146113f7576040517f08c379a00000000000000000000000000000000000000000000000000000000081526004016113ee90611fb3565b60405180910390fd5b565b6000806000905060005b6004805490508110156115325760006004828154811061142657611425611fd3565b5b9060005260206000200160009054906101000a900473ffffffffffffffffffffffffffffffffffffffff1690506000600360008373ffffffffffffffffffffffffffffffffffffffff1673ffffffffffffffffffffffffffffffffffffffff168152602001908152602001600020905060008160010154426114a89190611955565b90506201518082600201546114bd9190611a0b565b81101561151c576201518082600201546114d79190611a0b565b816201518084600201546114eb9190611a0b565b6114f59190611955565b83600001546115049190611a0b565b61150e9190611ae8565b856115199190611ea1565b94505b505050808061152a90612002565b915050611403565b508091505090565b60008060009054906101000a900473ffffffffffffffffffffffffffffffffffffffff169050816000806101000a81548173ffffffffffffffffffffffffffffffffffffffff021916908373ffffffffffffffffffffffffffffffffffffffff1602179055508173ffffffffffffffffffffffffffffffffffffffff168173ffffffffffffffffffffffffffffffffffffffff167f8be0079c531659141344cd1fd0a4f28419497f9722a3daafe3b4186f6b6457e060405160405180910390a35050565b600033905090565b600080fd5b600073ffffffffffffffffffffffffffffffffffffffff82169050919050565b60006116368261160b565b9050919050565b6116468161162b565b811461165157600080fd5b50565b6000813590506116638161163d565b92915050565b60006020828403121561167f5761167e611606565b5b600061168d84828501611654565b91505092915050565b6000819050919050565b6116a981611696565b82525050565b60006020820190506116c460008301846116a0565b92915050565b6116d381611696565b81146116de57600080fd5b50565b6000813590506116f0816116ca565b92915050565b60006020828403121561170c5761170b611606565b5b600061171a848285016116e1565b91505092915050565b61172c8161162b565b82525050565b60006020820190506117476000830184611723565b92915050565b6000806040838503121561176457611763611606565b5b600061177285828601611654565b9250506020611783858286016116e1565b9150509250929050565b60008115159050919050565b6117a28161178d565b82525050565b60006080820190506117bd60008301876116a0565b6117ca60208301866116a0565b6117d760408301856116a0565b6117e46060830184611799565b95945050505050565b6000819050919050565b600061181261180d6118088461160b565b6117ed565b61160b565b9050919050565b6000611824826117f7565b9050919050565b600061183682611819565b9050919050565b6118468161182b565b82525050565b6000602082019050611861600083018461183d565b92915050565b600081519050611876816116ca565b92915050565b60006020828403121561189257611891611606565b5b60006118a084828501611867565b91505092915050565b600082825260208201905092915050565b7f4e6f20776974686472617761626c6520616d6f756e7420617661696c61626c65600082015250565b60006118f06020836118a9565b91506118fb826118ba565b602082019050919050565b6000602082019050818103600083015261191f816118e3565b9050919050565b7f4e487b7100000000000000000000000000000000000000000000000000000000600052601160045260246000fd5b600061196082611696565b915061196b83611696565b925082820390508181111561198357611982611926565b5b92915050565b600060408201905061199e6000830185611723565b6119ab60208301846116a0565b9392505050565b6119bb8161178d565b81146119c657600080fd5b50565b6000815190506119d8816119b2565b92915050565b6000602082840312156119f4576119f3611606565b5b6000611a02848285016119c9565b91505092915050565b6000611a1682611696565b9150611a2183611696565b9250828202611a2f81611696565b91508282048414831517611a4657611a45611926565b5b5092915050565b7f537562736372697074696f6e20616c7265616479206578706972656400000000600082015250565b6000611a83601c836118a9565b9150611a8e82611a4d565b602082019050919050565b60006020820190508181036000830152611ab281611a76565b9050919050565b7f4e487b7100000000000000000000000000000000000000000000000000000000600052601260045260246000fd5b6000611af382611696565b9150611afe83611696565b925082611b0e57611b0d611ab9565b5b828204905092915050565b7f496e73756666696369656e742062616c616e6365000000000000000000000000600082015250565b6000611b4f6014836118a9565b9150611b5a82611b19565b602082019050919050565b60006020820190508181036000830152611b7e81611b42565b9050919050565b7f43616e6e6f74207769746864726177207061796d656e7420746f6b656e000000600082015250565b6000611bbb601d836118a9565b9150611bc682611b85565b602082019050919050565b60006020820190508181036000830152611bea81611bae565b9050919050565b7f4475726174696f6e206d7573742062652067726561746572207468616e203000600082015250565b6000611c27601f836118a9565b9150611c3282611bf1565b602082019050919050565b60006020820190508181036000830152611c5681611c1a565b9050919050565b7f537562736372697074696f6e20616c7265616479206578697374730000000000600082015250565b6000611c93601b836118a9565b9150611c9e82611c5d565b602082019050919050565b60006020820190508181036000830152611cc281611c86565b9050919050565b6000606082019050611cde6000830186611723565b611ceb6020830185611723565b611cf860408301846116a0565b949350505050565b7f546f6b656e207472616e73666572206661696c65640000000000000000000000600082015250565b6000611d366015836118a9565b9150611d4182611d00565b602082019050919050565b60006020820190508181036000830152611d6581611d29565b9050919050565b6000606082019050611d8160008301866116a0565b611d8e60208301856116a0565b611d9b60408301846116a0565b949350505050565b7f4164646974696f6e616c2064617973206d75737420626520677265617465722060008201527f7468616e20300000000000000000000000000000000000000000000000000000602082015250565b6000611dff6026836118a9565b9150611e0a82611da3565b604082019050919050565b60006020820190508181036000830152611e2e81611df2565b9050919050565b7f4e6f2061637469766520737562736372697074696f6e00000000000000000000600082015250565b6000611e6b6016836118a9565b9150611e7682611e35565b602082019050919050565b60006020820190508181036000830152611e9a81611e5e565b9050919050565b6000611eac82611696565b9150611eb783611696565b9250828201905080821115611ecf57611ece611926565b5b92915050565b7f4f776e61626c653a206e6577206f776e657220697320746865207a65726f206160008201527f6464726573730000000000000000000000000000000000000000000000000000602082015250565b6000611f316026836118a9565b9150611f3c82611ed5565b604082019050919050565b60006020820190508181036000830152611f6081611f24565b9050919050565b7f4f776e61626c653a2063616c6c6572206973206e6f7420746865206f776e6572600082015250565b6000611f9d6020836118a9565b9150611fa882611f67565b602082019050919050565b60006020820190508181036000830152611fcc81611f90565b9050919050565b7f4e487b7100000000000000000000000000000000000000000000000000000000600052603260045260246000fd5b600061200d82611696565b91507fffffffffffffffffffffffffffffffffffffffffffffffffffffffffffffffff820361203f5761203e611926565b5b60018201905091905056fea264697066735822122071f42a750d1638bd1b9ceecae339ecd48665d6f88f49c97d41338c7d80e2bcd464736f6c63430008120033",
			"opcodes": "PUSH1 0x80 PUSH1 0x40 MSTORE PUSH8 0xDE0B6B3A7640000 PUSH1 0x2 SSTORE CALLVALUE DUP1 ISZERO PUSH3 0x1D JUMPI PUSH1 0x0 DUP1 REVERT JUMPDEST POP PUSH1 0x40 MLOAD PUSH3 0x22A3 CODESIZE SUB DUP1 PUSH3 0x22A3 DUP4 CODECOPY DUP2 DUP2 ADD PUSH1 0x40 MSTORE DUP2 ADD SWAP1 PUSH3 0x43 SWAP2 SWAP1 PUSH3 0x1E1 JUMP JUMPDEST PUSH3 0x63 PUSH3 0x57 PUSH3 0xAB PUSH1 0x20 SHL PUSH1 0x20 SHR JUMP JUMPDEST PUSH3 0xB3 PUSH1 0x20 SHL PUSH1 0x20 SHR JUMP JUMPDEST DUP1 PUSH1 0x1 PUSH1 0x0 PUSH2 0x100 EXP DUP2 SLOAD DUP2 PUSH20 0xFFFFFFFFFFFFFFFFFFFFFFFFFFFFFFFFFFFFFFFF MUL NOT AND SWAP1 DUP4 PUSH20 0xFFFFFFFFFFFFFFFFFFFFFFFFFFFFFFFFFFFFFFFF AND MUL OR SWAP1 SSTORE POP POP PUSH3 0x213 JUMP JUMPDEST PUSH1 0x0 CALLER SWAP1 POP SWAP1 JUMP JUMPDEST PUSH1 0x0 DUP1 PUSH1 0x0 SWAP1 SLOAD SWAP1 PUSH2 0x100 EXP SWAP1 DIV PUSH20 0xFFFFFFFFFFFFFFFFFFFFFFFFFFFFFFFFFFFFFFFF AND SWAP1 POP DUP2 PUSH1 0x0 DUP1 PUSH2 0x100 EXP DUP2 SLOAD DUP2 PUSH20 0xFFFFFFFFFFFFFFFFFFFFFFFFFFFFFFFFFFFFFFFF MUL NOT AND SWAP1 DUP4 PUSH20 0xFFFFFFFFFFFFFFFFFFFFFFFFFFFFFFFFFFFFFFFF AND MUL OR SWAP1 SSTORE POP DUP2 PUSH20 0xFFFFFFFFFFFFFFFFFFFFFFFFFFFFFFFFFFFFFFFF AND DUP2 PUSH20 0xFFFFFFFFFFFFFFFFFFFFFFFFFFFFFFFFFFFFFFFF AND PUSH32 0x8BE0079C531659141344CD1FD0A4F28419497F9722A3DAAFE3B4186F6B6457E0 PUSH1 0x40 MLOAD PUSH1 0x40 MLOAD DUP1 SWAP2 SUB SWAP1 LOG3 POP POP JUMP JUMPDEST PUSH1 0x0 DUP1 REVERT JUMPDEST PUSH1 0x0 PUSH20 0xFFFFFFFFFFFFFFFFFFFFFFFFFFFFFFFFFFFFFFFF DUP3 AND SWAP1 POP SWAP2 SWAP1 POP JUMP JUMPDEST PUSH1 0x0 PUSH3 0x1A9 DUP3 PUSH3 0x17C JUMP JUMPDEST SWAP1 POP SWAP2 SWAP1 POP JUMP JUMPDEST PUSH3 0x1BB DUP2 PUSH3 0x19C JUMP JUMPDEST DUP2 EQ PUSH3 0x1C7 JUMPI PUSH1 0x0 DUP1 REVERT JUMPDEST POP JUMP JUMPDEST PUSH1 0x0 DUP2 MLOAD SWAP1 POP PUSH3 0x1DB DUP2 PUSH3 0x1B0 JUMP JUMPDEST SWAP3 SWAP2 POP POP JUMP JUMPDEST PUSH1 0x0 PUSH1 0x20 DUP3 DUP5 SUB SLT ISZERO PUSH3 0x1FA JUMPI PUSH3 0x1F9 PUSH3 0x177 JUMP JUMPDEST JUMPDEST PUSH1 0x0 PUSH3 0x20A DUP5 DUP3 DUP6 ADD PUSH3 0x1CA JUMP JUMPDEST SWAP2 POP POP SWAP3 SWAP2 POP POP JUMP JUMPDEST PUSH2 0x2080 DUP1 PUSH3 0x223 PUSH1 0x0 CODECOPY PUSH1 0x0 RETURN INVALID PUSH1 0x80 PUSH1 0x40 MSTORE CALLVALUE DUP1 ISZERO PUSH2 0x10 JUMPI PUSH1 0x0 DUP1 REVERT JUMPDEST POP PUSH1 0x4 CALLDATASIZE LT PUSH2 0xF5 JUMPI PUSH1 0x0 CALLDATALOAD PUSH1 0xE0 SHR DUP1 PUSH4 0x5CF504E1 GT PUSH2 0x97 JUMPI DUP1 PUSH4 0xDCE2556F GT PUSH2 0x66 JUMPI DUP1 PUSH4 0xDCE2556F EQ PUSH2 0x224 JUMPI DUP1 PUSH4 0xF046395A EQ PUSH2 0x240 JUMPI DUP1 PUSH4 0xF2FDE38B EQ PUSH2 0x273 JUMPI DUP1 PUSH4 0xFC0C546A EQ PUSH2 0x28F JUMPI PUSH2 0xF5 JUMP JUMPDEST DUP1 PUSH4 0x5CF504E1 EQ PUSH2 0x1C4 JUMPI DUP1 PUSH4 0x715018A6 EQ PUSH2 0x1E0 JUMPI DUP1 PUSH4 0x8DA5CB5B EQ PUSH2 0x1EA JUMPI DUP1 PUSH4 0x91B7F5ED EQ PUSH2 0x208 JUMPI PUSH2 0xF5 JUMP JUMPDEST DUP1 PUSH4 0x24E9EDB0 GT PUSH2 0xD3 JUMPI DUP1 PUSH4 0x24E9EDB0 EQ PUSH2 0x152 JUMPI DUP1 PUSH4 0x365B98B2 EQ PUSH2 0x15C JUMPI DUP1 PUSH4 0x3BED33CE EQ PUSH2 0x18C JUMPI DUP1 PUSH4 0x419FA793 EQ PUSH2 0x1A8 JUMPI PUSH2 0xF5 JUMP JUMPDEST DUP1 PUSH4 0x2778FC0 EQ PUSH2 0xFA JUMPI DUP1 PUSH4 0x111EB8B1 EQ PUSH2 0x104 JUMPI DUP1 PUSH4 0x1D0806AE EQ PUSH2 0x134 JUMPI JUMPDEST PUSH1 0x0 DUP1 REVERT JUMPDEST PUSH2 0x102 PUSH2 0x2AD JUMP JUMPDEST STOP JUMPDEST PUSH2 0x11E PUSH1 0x4 DUP1 CALLDATASIZE SUB DUP2 ADD SWAP1 PUSH2 0x119 SWAP2 SWAP1 PUSH2 0x1669 JUMP JUMPDEST PUSH2 0x4EE JUMP JUMPDEST PUSH1 0x40 MLOAD PUSH2 0x12B SWAP2 SWAP1 PUSH2 0x16AF JUMP JUMPDEST PUSH1 0x40 MLOAD DUP1 SWAP2 SUB SWAP1 RETURN JUMPDEST PUSH2 0x13C PUSH2 0x592 JUMP JUMPDEST PUSH1 0x40 MLOAD PUSH2 0x149 SWAP2 SWAP1 PUSH2 0x16AF JUMP JUMPDEST PUSH1 0x40 MLOAD DUP1 SWAP2 SUB SWAP1 RETURN JUMPDEST PUSH2 0x15A PUSH2 0x598 JUMP JUMPDEST STOP JUMPDEST PUSH2 0x176 PUSH1 0x4 DUP1 CALLDATASIZE SUB DUP2 ADD SWAP1 PUSH2 0x171 SWAP2 SWAP1 PUSH2 0x16F6 JUMP JUMPDEST PUSH2 0x7A2 JUMP JUMPDEST PUSH1 0x40 MLOAD PUSH2 0x183 SWAP2 SWAP1 PUSH2 0x1732 JUMP JUMPDEST PUSH1 0x40 MLOAD DUP1 SWAP2 SUB SWAP1 RETURN JUMPDEST PUSH2 0x1A6 PUSH1 0x4 DUP1 CALLDATASIZE SUB DUP2 ADD SWAP1 PUSH2 0x1A1 SWAP2 SWAP1 PUSH2 0x16F6 JUMP JUMPDEST PUSH2 0x7E1 JUMP JUMPDEST STOP JUMPDEST PUSH2 0x1C2 PUSH1 0x4 DUP1 CALLDATASIZE SUB DUP2 ADD SWAP1 PUSH2 0x1BD SWAP2 SWAP1 PUSH2 0x174D JUMP JUMPDEST PUSH2 0x8F0 JUMP JUMPDEST STOP JUMPDEST PUSH2 0x1DE PUSH1 0x4 DUP1 CALLDATASIZE SUB DUP2 ADD SWAP1 PUSH2 0x1D9 SWAP2 SWAP1 PUSH2 0x16F6 JUMP JUMPDEST PUSH2 0xB46 JUMP JUMPDEST STOP JUMPDEST PUSH2 0x1E8 PUSH2 0xE69 JUMP JUMPDEST STOP JUMPDEST PUSH2 0x1F2 PUSH2 0xE7D JUMP JUMPDEST PUSH1 0x40 MLOAD PUSH2 0x1FF SWAP2 SWAP1 PUSH2 0x1732 JUMP JUMPDEST PUSH1 0x40 MLOAD DUP1 SWAP2 SUB SWAP1 RETURN JUMPDEST PUSH2 0x222 PUSH1 0x4 DUP1 CALLDATASIZE SUB DUP2 ADD SWAP1 PUSH2 0x21D SWAP2 SWAP1 PUSH2 0x16F6 JUMP JUMPDEST PUSH2 0xEA6 JUMP JUMPDEST STOP JUMPDEST PUSH2 0x23E PUSH1 0x4 DUP1 CALLDATASIZE SUB DUP2 ADD SWAP1 PUSH2 0x239 SWAP2 SWAP1 PUSH2 0x16F6 JUMP JUMPDEST PUSH2 0xEF5 JUMP JUMPDEST STOP JUMPDEST PUSH2 0x25A PUSH1 0x4 DUP1 CALLDATASIZE SUB DUP2 ADD SWAP1 PUSH2 0x255 SWAP2 SWAP1 PUSH2 0x1669 JUMP JUMPDEST PUSH2 0x1295 JUMP JUMPDEST PUSH1 0x40 MLOAD PUSH2 0x26A SWAP5 SWAP4 SWAP3 SWAP2 SWAP1 PUSH2 0x17A8 JUMP JUMPDEST PUSH1 0x40 MLOAD DUP1 SWAP2 SUB SWAP1 RETURN JUMPDEST PUSH2 0x28D PUSH1 0x4 DUP1 CALLDATASIZE SUB DUP2 ADD SWAP1 PUSH2 0x288 SWAP2 SWAP1 PUSH2 0x1669 JUMP JUMPDEST PUSH2 0x12D2 JUMP JUMPDEST STOP JUMPDEST PUSH2 0x297 PUSH2 0x1355 JUMP JUMPDEST PUSH1 0x40 MLOAD PUSH2 0x2A4 SWAP2 SWAP1 PUSH2 0x184C JUMP JUMPDEST PUSH1 0x40 MLOAD DUP1 SWAP2 SUB SWAP1 RETURN JUMPDEST PUSH2 0x2B5 PUSH2 0x137B JUMP JUMPDEST PUSH1 0x0 PUSH1 0x1 PUSH1 0x0 SWAP1 SLOAD SWAP1 PUSH2 0x100 EXP SWAP1 DIV PUSH20 0xFFFFFFFFFFFFFFFFFFFFFFFFFFFFFFFFFFFFFFFF AND PUSH20 0xFFFFFFFFFFFFFFFFFFFFFFFFFFFFFFFFFFFFFFFF AND PUSH4 0x70A08231 ADDRESS PUSH1 0x40 MLOAD DUP3 PUSH4 0xFFFFFFFF AND PUSH1 0xE0 SHL DUP2 MSTORE PUSH1 0x4 ADD PUSH2 0x312 SWAP2 SWAP1 PUSH2 0x1732 JUMP JUMPDEST PUSH1 0x20 PUSH1 0x40 MLOAD DUP1 DUP4 SUB DUP2 DUP7 GAS STATICCALL ISZERO DUP1 ISZERO PUSH2 0x32F JUMPI RETURNDATASIZE PUSH1 0x0 DUP1 RETURNDATACOPY RETURNDATASIZE PUSH1 0x0 REVERT JUMPDEST POP POP POP POP PUSH1 0x40 MLOAD RETURNDATASIZE PUSH1 0x1F NOT PUSH1 0x1F DUP3 ADD AND DUP3 ADD DUP1 PUSH1 0x40 MSTORE POP DUP2 ADD SWAP1 PUSH2 0x353 SWAP2 SWAP1 PUSH2 0x187C JUMP JUMPDEST SWAP1 POP PUSH1 0x0 PUSH2 0x35F PUSH2 0x13F9 JUMP JUMPDEST SWAP1 POP DUP1 DUP3 GT PUSH2 0x3A3 JUMPI PUSH1 0x40 MLOAD PUSH32 0x8C379A000000000000000000000000000000000000000000000000000000000 DUP2 MSTORE PUSH1 0x4 ADD PUSH2 0x39A SWAP1 PUSH2 0x1906 JUMP JUMPDEST PUSH1 0x40 MLOAD DUP1 SWAP2 SUB SWAP1 REVERT JUMPDEST PUSH1 0x0 DUP2 DUP4 PUSH2 0x3B1 SWAP2 SWAP1 PUSH2 0x1955 JUMP JUMPDEST SWAP1 POP PUSH1 0x1 PUSH1 0x0 SWAP1 SLOAD SWAP1 PUSH2 0x100 EXP SWAP1 DIV PUSH20 0xFFFFFFFFFFFFFFFFFFFFFFFFFFFFFFFFFFFFFFFF AND PUSH20 0xFFFFFFFFFFFFFFFFFFFFFFFFFFFFFFFFFFFFFFFF AND PUSH4 0xA9059CBB PUSH2 0x3F9 PUSH2 0xE7D JUMP JUMPDEST DUP4 PUSH1 0x40 MLOAD DUP4 PUSH4 0xFFFFFFFF AND PUSH1 0xE0 SHL DUP2 MSTORE PUSH1 0x4 ADD PUSH2 0x417 SWAP3 SWAP2 SWAP1 PUSH2 0x1989 JUMP JUMPDEST PUSH1 0x20 PUSH1 0x40 MLOAD DUP1 DUP4 SUB DUP2 PUSH1 0x0 DUP8 GAS CALL ISZERO DUP1 ISZERO PUSH2 0x436 JUMPI RETURNDATASIZE PUSH1 0x0 DUP1 RETURNDATACOPY RETURNDATASIZE PUSH1 0x0 REVERT JUMPDEST POP POP POP POP PUSH1 0x40 MLOAD RETURNDATASIZE PUSH1 0x1F NOT PUSH1 0x1F DUP3 ADD AND DUP3 ADD DUP1 PUSH1 0x40 MSTORE POP DUP2 ADD SWAP1 PUSH2 0x45A SWAP2 SWAP1 PUSH2 0x19DE JUMP JUMPDEST POP PUSH1 0x1 PUSH1 0x0 SWAP1 SLOAD SWAP1 PUSH2 0x100 EXP SWAP1 DIV PUSH20 0xFFFFFFFFFFFFFFFFFFFFFFFFFFFFFFFFFFFFFFFF AND PUSH20 0xFFFFFFFFFFFFFFFFFFFFFFFFFFFFFFFFFFFFFFFF AND PUSH2 0x49C PUSH2 0xE7D JUMP JUMPDEST PUSH20 0xFFFFFFFFFFFFFFFFFFFFFFFFFFFFFFFFFFFFFFFF AND PUSH32 0x6337ED398C0E8467698C581374FDCE4DB14922DF487B5A39483079F5F59B60A4 DUP4 PUSH1 0x40 MLOAD PUSH2 0x4E1 SWAP2 SWAP1 PUSH2 0x16AF JUMP JUMPDEST PUSH1 0x40 MLOAD DUP1 SWAP2 SUB SWAP1 LOG3 POP POP POP JUMP JUMPDEST PUSH1 0x0 DUP1 PUSH1 0x3 PUSH1 0x0 DUP5 PUSH20 0xFFFFFFFFFFFFFFFFFFFFFFFFFFFFFFFFFFFFFFFF AND PUSH20 0xFFFFFFFFFFFFFFFFFFFFFFFFFFFFFFFFFFFFFFFF AND DUP2 MSTORE PUSH1 0x20 ADD SWAP1 DUP2 MSTORE PUSH1 0x20 ADD PUSH1 0x0 KECCAK256 SWAP1 POP PUSH1 0x0 DUP2 PUSH1 0x1 ADD SLOAD TIMESTAMP PUSH2 0x544 SWAP2 SWAP1 PUSH2 0x1955 JUMP JUMPDEST SWAP1 POP PUSH3 0x15180 DUP3 PUSH1 0x2 ADD SLOAD PUSH2 0x559 SWAP2 SWAP1 PUSH2 0x1A0B JUMP JUMPDEST DUP2 LT PUSH2 0x56A JUMPI PUSH1 0x0 SWAP3 POP POP POP PUSH2 0x58D JUMP JUMPDEST DUP1 PUSH3 0x15180 DUP4 PUSH1 0x2 ADD SLOAD PUSH2 0x57E SWAP2 SWAP1 PUSH2 0x1A0B JUMP JUMPDEST PUSH2 0x588 SWAP2 SWAP1 PUSH2 0x1955 JUMP JUMPDEST SWAP3 POP POP POP JUMPDEST SWAP2 SWAP1 POP JUMP JUMPDEST PUSH1 0x2 SLOAD DUP2 JUMP JUMPDEST PUSH1 0x0 PUSH1 0x3 PUSH1 0x0 CALLER PUSH20 0xFFFFFFFFFFFFFFFFFFFFFFFFFFFFFFFFFFFFFFFF AND PUSH20 0xFFFFFFFFFFFFFFFFFFFFFFFFFFFFFFFFFFFFFFFF AND DUP2 MSTORE PUSH1 0x20 ADD SWAP1 DUP2 MSTORE PUSH1 0x20 ADD PUSH1 0x0 KECCAK256 SWAP1 POP PUSH1 0x0 DUP2 PUSH1 0x1 ADD SLOAD TIMESTAMP PUSH2 0x5ED SWAP2 SWAP1 PUSH2 0x1955 JUMP JUMPDEST SWAP1 POP PUSH3 0x15180 DUP3 PUSH1 0x2 ADD SLOAD PUSH2 0x602 SWAP2 SWAP1 PUSH2 0x1A0B JUMP JUMPDEST DUP2 LT PUSH2 0x643 JUMPI PUSH1 0x40 MLOAD PUSH32 0x8C379A000000000000000000000000000000000000000000000000000000000 DUP2 MSTORE PUSH1 0x4 ADD PUSH2 0x63A SWAP1 PUSH2 0x1A99 JUMP JUMPDEST PUSH1 0x40 MLOAD DUP1 SWAP2 SUB SWAP1 REVERT JUMPDEST PUSH1 0x0 PUSH3 0x15180 DUP4 PUSH1 0x2 ADD SLOAD PUSH2 0x658 SWAP2 SWAP1 PUSH2 0x1A0B JUMP JUMPDEST DUP3 PUSH3 0x15180 DUP6 PUSH1 0x2 ADD SLOAD PUSH2 0x66C SWAP2 SWAP1 PUSH2 0x1A0B JUMP JUMPDEST PUSH2 0x676 SWAP2 SWAP1 PUSH2 0x1955 JUMP JUMPDEST DUP5 PUSH1 0x0 ADD SLOAD PUSH2 0x685 SWAP2 SWAP1 PUSH2 0x1A0B JUMP JUMPDEST PUSH2 0x68F SWAP2 SWAP1 PUSH2 0x1AE8 JUMP JUMPDEST SWAP1 POP PUSH1 0x0 DUP4 PUSH1 0x3 ADD PUSH1 0x0 PUSH2 0x100 EXP DUP2 SLOAD DUP2 PUSH1 0xFF MUL NOT AND SWAP1 DUP4 ISZERO ISZERO MUL OR SWAP1 SSTORE POP PUSH1 0x1 PUSH1 0x0 SWAP1 SLOAD SWAP1 PUSH2 0x100 EXP SWAP1 DIV PUSH20 0xFFFFFFFFFFFFFFFFFFFFFFFFFFFFFFFFFFFFFFFF AND PUSH20 0xFFFFFFFFFFFFFFFFFFFFFFFFFFFFFFFFFFFFFFFF AND PUSH4 0xA9059CBB CALLER DUP4 PUSH1 0x40 MLOAD DUP4 PUSH4 0xFFFFFFFF AND PUSH1 0xE0 SHL DUP2 MSTORE PUSH1 0x4 ADD PUSH2 0x70B SWAP3 SWAP2 SWAP1 PUSH2 0x1989 JUMP JUMPDEST PUSH1 0x20 PUSH1 0x40 MLOAD DUP1 DUP4 SUB DUP2 PUSH1 0x0 DUP8 GAS CALL ISZERO DUP1 ISZERO PUSH2 0x72A JUMPI RETURNDATASIZE PUSH1 0x0 DUP1 RETURNDATACOPY RETURNDATASIZE PUSH1 0x0 REVERT JUMPDEST POP POP POP POP PUSH1 0x40 MLOAD RETURNDATASIZE PUSH1 0x1F NOT PUSH1 0x1F DUP3 ADD AND DUP3 ADD DUP1 PUSH1 0x40 MSTORE POP DUP2 ADD SWAP1 PUSH2 0x74E SWAP2 SWAP1 PUSH2 0x19DE JUMP JUMPDEST POP CALLER PUSH20 0xFFFFFFFFFFFFFFFFFFFFFFFFFFFFFFFFFFFFFFFF AND PUSH32 0x6AA12C0AD65927B4A753D119C26E490D3C4A4E11CB631B43131A709DC1E5917 DUP3 PUSH1 0x40 MLOAD PUSH2 0x795 SWAP2 SWAP1 PUSH2 0x16AF JUMP JUMPDEST PUSH1 0x40 MLOAD DUP1 SWAP2 SUB SWAP1 LOG2 POP POP POP JUMP JUMPDEST PUSH1 0x4 DUP2 DUP2 SLOAD DUP2 LT PUSH2 0x7B2 JUMPI PUSH1 0x0 DUP1 REVERT JUMPDEST SWAP1 PUSH1 0x0 MSTORE PUSH1 0x20 PUSH1 0x0 KECCAK256 ADD PUSH1 0x0 SWAP2 POP SLOAD SWAP1 PUSH2 0x100 EXP SWAP1 DIV PUSH20 0xFFFFFFFFFFFFFFFFFFFFFFFFFFFFFFFFFFFFFFFF AND DUP2 JUMP JUMPDEST PUSH2 0x7E9 PUSH2 0x137B JUMP JUMPDEST PUSH1 0x0 SELFBALANCE SWAP1 POP DUP2 DUP2 LT ISZERO PUSH2 0x831 JUMPI PUSH1 0x40 MLOAD PUSH32 0x8C379A000000000000000000000000000000000000000000000000000000000 DUP2 MSTORE PUSH1 0x4 ADD PUSH2 0x828 SWAP1 PUSH2 0x1B65 JUMP JUMPDEST PUSH1 0x40 MLOAD DUP1 SWAP2 SUB SWAP1 REVERT JUMPDEST PUSH2 0x839 PUSH2 0xE7D JUMP JUMPDEST PUSH20 0xFFFFFFFFFFFFFFFFFFFFFFFFFFFFFFFFFFFFFFFF AND PUSH2 0x8FC DUP4 SWAP1 DUP2 ISZERO MUL SWAP1 PUSH1 0x40 MLOAD PUSH1 0x0 PUSH1 0x40 MLOAD DUP1 DUP4 SUB DUP2 DUP6 DUP9 DUP9 CALL SWAP4 POP POP POP POP ISZERO DUP1 ISZERO PUSH2 0x87E JUMPI RETURNDATASIZE PUSH1 0x0 DUP1 RETURNDATACOPY RETURNDATASIZE PUSH1 0x0 REVERT JUMPDEST POP PUSH1 0x0 PUSH20 0xFFFFFFFFFFFFFFFFFFFFFFFFFFFFFFFFFFFFFFFF AND PUSH2 0x89F PUSH2 0xE7D JUMP JUMPDEST PUSH20 0xFFFFFFFFFFFFFFFFFFFFFFFFFFFFFFFFFFFFFFFF AND PUSH32 0x6337ED398C0E8467698C581374FDCE4DB14922DF487B5A39483079F5F59B60A4 DUP5 PUSH1 0x40 MLOAD PUSH2 0x8E4 SWAP2 SWAP1 PUSH2 0x16AF JUMP JUMPDEST PUSH1 0x40 MLOAD DUP1 SWAP2 SUB SWAP1 LOG3 POP POP JUMP JUMPDEST PUSH2 0x8F8 PUSH2 0x137B JUMP JUMPDEST PUSH1 0x1 PUSH1 0x0 SWAP1 SLOAD SWAP1 PUSH2 0x100 EXP SWAP1 DIV PUSH20 0xFFFFFFFFFFFFFFFFFFFFFFFFFFFFFFFFFFFFFFFF AND PUSH20 0xFFFFFFFFFFFFFFFFFFFFFFFFFFFFFFFFFFFFFFFF AND DUP3 PUSH20 0xFFFFFFFFFFFFFFFFFFFFFFFFFFFFFFFFFFFFFFFF AND SUB PUSH2 0x988 JUMPI PUSH1 0x40 MLOAD PUSH32 0x8C379A000000000000000000000000000000000000000000000000000000000 DUP2 MSTORE PUSH1 0x4 ADD PUSH2 0x97F SWAP1 PUSH2 0x1BD1 JUMP JUMPDEST PUSH1 0x40 MLOAD DUP1 SWAP2 SUB SWAP1 REVERT JUMPDEST PUSH1 0x0 DUP3 SWAP1 POP PUSH1 0x0 DUP2 PUSH20 0xFFFFFFFFFFFFFFFFFFFFFFFFFFFFFFFFFFFFFFFF AND PUSH4 0x70A08231 ADDRESS PUSH1 0x40 MLOAD DUP3 PUSH4 0xFFFFFFFF AND PUSH1 0xE0 SHL DUP2 MSTORE PUSH1 0x4 ADD PUSH2 0x9C8 SWAP2 SWAP1 PUSH2 0x1732 JUMP JUMPDEST PUSH1 0x20 PUSH1 0x40 MLOAD DUP1 DUP4 SUB DUP2 DUP7 GAS STATICCALL ISZERO DUP1 ISZERO PUSH2 0x9E5 JUMPI RETURNDATASIZE PUSH1 0x0 DUP1 RETURNDATACOPY RETURNDATASIZE PUSH1 0x0 REVERT JUMPDEST POP POP POP POP PUSH1 0x40 MLOAD RETURNDATASIZE PUSH1 0x1F NOT PUSH1 0x1F DUP3 ADD AND DUP3 ADD DUP1 PUSH1 0x40 MSTORE POP DUP2 ADD SWAP1 PUSH2 0xA09 SWAP2 SWAP1 PUSH2 0x187C JUMP JUMPDEST SWAP1 POP DUP3 DUP2 LT ISZERO PUSH2 0xA4E JUMPI PUSH1 0x40 MLOAD PUSH32 0x8C379A000000000000000000000000000000000000000000000000000000000 DUP2 MSTORE PUSH1 0x4 ADD PUSH2 0xA45 SWAP1 PUSH2 0x1B65 JUMP JUMPDEST PUSH1 0x40 MLOAD DUP1 SWAP2 SUB SWAP1 REVERT JUMPDEST DUP2 PUSH20 0xFFFFFFFFFFFFFFFFFFFFFFFFFFFFFFFFFFFFFFFF AND PUSH4 0xA9059CBB PUSH2 0xA72 PUSH2 0xE7D JUMP JUMPDEST DUP6 PUSH1 0x40 MLOAD DUP4 PUSH4 0xFFFFFFFF AND PUSH1 0xE0 SHL DUP2 MSTORE PUSH1 0x4 ADD PUSH2 0xA90 SWAP3 SWAP2 SWAP1 PUSH2 0x1989 JUMP JUMPDEST PUSH1 0x20 PUSH1 0x40 MLOAD DUP1 DUP4 SUB DUP2 PUSH1 0x0 DUP8 GAS CALL ISZERO DUP1 ISZERO PUSH2 0xAAF JUMPI RETURNDATASIZE PUSH1 0x0 DUP1 RETURNDATACOPY RETURNDATASIZE PUSH1 0x0 REVERT JUMPDEST POP POP POP POP PUSH1 0x40 MLOAD RETURNDATASIZE PUSH1 0x1F NOT PUSH1 0x1F DUP3 ADD AND DUP3 ADD DUP1 PUSH1 0x40 MSTORE POP DUP2 ADD SWAP1 PUSH2 0xAD3 SWAP2 SWAP1 PUSH2 0x19DE JUMP JUMPDEST POP DUP4 PUSH20 0xFFFFFFFFFFFFFFFFFFFFFFFFFFFFFFFFFFFFFFFF AND PUSH2 0xAF3 PUSH2 0xE7D JUMP JUMPDEST PUSH20 0xFFFFFFFFFFFFFFFFFFFFFFFFFFFFFFFFFFFFFFFF AND PUSH32 0x6337ED398C0E8467698C581374FDCE4DB14922DF487B5A39483079F5F59B60A4 DUP6 PUSH1 0x40 MLOAD PUSH2 0xB38 SWAP2 SWAP1 PUSH2 0x16AF JUMP JUMPDEST PUSH1 0x40 MLOAD DUP1 SWAP2 SUB SWAP1 LOG3 POP POP POP POP JUMP JUMPDEST PUSH1 0x0 DUP2 GT PUSH2 0xB89 JUMPI PUSH1 0x40 MLOAD PUSH32 0x8C379A000000000000000000000000000000000000000000000000000000000 DUP2 MSTORE PUSH1 0x4 ADD PUSH2 0xB80 SWAP1 PUSH2 0x1C3D JUMP JUMPDEST PUSH1 0x40 MLOAD DUP1 SWAP2 SUB SWAP1 REVERT JUMPDEST PUSH1 0x3 PUSH1 0x0 CALLER PUSH20 0xFFFFFFFFFFFFFFFFFFFFFFFFFFFFFFFFFFFFFFFF AND PUSH20 0xFFFFFFFFFFFFFFFFFFFFFFFFFFFFFFFFFFFFFFFF AND DUP2 MSTORE PUSH1 0x20 ADD SWAP1 DUP2 MSTORE PUSH1 0x20 ADD PUSH1 0x0 KECCAK256 PUSH1 0x3 ADD PUSH1 0x0 SWAP1 SLOAD SWAP1 PUSH2 0x100 EXP SWAP1 DIV PUSH1 0xFF AND ISZERO PUSH2 0xC19 JUMPI PUSH1 0x40 MLOAD PUSH32 0x8C379A000000000000000000000000000000000000000000000000000000000 DUP2 MSTORE PUSH1 0x4 ADD PUSH2 0xC10 SWAP1 PUSH2 0x1CA9 JUMP JUMPDEST PUSH1 0x40 MLOAD DUP1 SWAP2 SUB SWAP1 REVERT JUMPDEST PUSH1 0x0 DUP2 PUSH1 0x2 SLOAD PUSH2 0xC29 SWAP2 SWAP1 PUSH2 0x1A0B JUMP JUMPDEST SWAP1 POP PUSH1 0x1 PUSH1 0x0 SWAP1 SLOAD SWAP1 PUSH2 0x100 EXP SWAP1 DIV PUSH20 0xFFFFFFFFFFFFFFFFFFFFFFFFFFFFFFFFFFFFFFFF AND PUSH20 0xFFFFFFFFFFFFFFFFFFFFFFFFFFFFFFFFFFFFFFFF AND PUSH4 0x23B872DD CALLER ADDRESS DUP5 PUSH1 0x40 MLOAD DUP5 PUSH4 0xFFFFFFFF AND PUSH1 0xE0 SHL DUP2 MSTORE PUSH1 0x4 ADD PUSH2 0xC8A SWAP4 SWAP3 SWAP2 SWAP1 PUSH2 0x1CC9 JUMP JUMPDEST PUSH1 0x20 PUSH1 0x40 MLOAD DUP1 DUP4 SUB DUP2 PUSH1 0x0 DUP8 GAS CALL ISZERO DUP1 ISZERO PUSH2 0xCA9 JUMPI RETURNDATASIZE PUSH1 0x0 DUP1 RETURNDATACOPY RETURNDATASIZE PUSH1 0x0 REVERT JUMPDEST POP POP POP POP PUSH1 0x40 MLOAD RETURNDATASIZE PUSH1 0x1F NOT PUSH1 0x1F DUP3 ADD AND DUP3 ADD DUP1 PUSH1 0x40 MSTORE POP DUP2 ADD SWAP1 PUSH2 0xCCD SWAP2 SWAP1 PUSH2 0x19DE JUMP JUMPDEST PUSH2 0xD0C JUMPI PUSH1 0x40 MLOAD PUSH32 0x8C379A000000000000000000000000000000000000000000000000000000000 DUP2 MSTORE PUSH1 0x4 ADD PUSH2 0xD03 SWAP1 PUSH2 0x1D4C JUMP JUMPDEST PUSH1 0x40 MLOAD DUP1 SWAP2 SUB SWAP1 REVERT JUMPDEST PUSH1 0x40 MLOAD DUP1 PUSH1 0x80 ADD PUSH1 0x40 MSTORE DUP1 DUP3 DUP2 MSTORE PUSH1 0x20 ADD TIMESTAMP DUP2 MSTORE PUSH1 0x20 ADD DUP4 DUP2 MSTORE PUSH1 0x20 ADD PUSH1 0x1 ISZERO ISZERO DUP2 MSTORE POP PUSH1 0x3 PUSH1 0x0 CALLER PUSH20 0xFFFFFFFFFFFFFFFFFFFFFFFFFFFFFFFFFFFFFFFF AND PUSH20 0xFFFFFFFFFFFFFFFFFFFFFFFFFFFFFFFFFFFFFFFF AND DUP2 MSTORE PUSH1 0x20 ADD SWAP1 DUP2 MSTORE PUSH1 0x20 ADD PUSH1 0x0 KECCAK256 PUSH1 0x0 DUP3 ADD MLOAD DUP2 PUSH1 0x0 ADD SSTORE PUSH1 0x20 DUP3 ADD MLOAD DUP2 PUSH1 0x1 ADD SSTORE PUSH1 0x40 DUP3 ADD MLOAD DUP2 PUSH1 0x2 ADD SSTORE PUSH1 0x60 DUP3 ADD MLOAD DUP2 PUSH1 0x3 ADD PUSH1 0x0 PUSH2 0x100 EXP DUP2 SLOAD DUP2 PUSH1 0xFF MUL NOT AND SWAP1 DUP4 ISZERO ISZERO MUL OR SWAP1 SSTORE POP SWAP1 POP POP PUSH1 0x4 CALLER SWAP1 DUP1 PUSH1 0x1 DUP2 SLOAD ADD DUP1 DUP3 SSTORE DUP1 SWAP2 POP POP PUSH1 0x1 SWAP1 SUB SWAP1 PUSH1 0x0 MSTORE PUSH1 0x20 PUSH1 0x0 KECCAK256 ADD PUSH1 0x0 SWAP1 SWAP2 SWAP1 SWAP2 SWAP1 SWAP2 PUSH2 0x100 EXP DUP2 SLOAD DUP2 PUSH20 0xFFFFFFFFFFFFFFFFFFFFFFFFFFFFFFFFFFFFFFFF MUL NOT AND SWAP1 DUP4 PUSH20 0xFFFFFFFFFFFFFFFFFFFFFFFFFFFFFFFFFFFFFFFF AND MUL OR SWAP1 SSTORE POP CALLER PUSH20 0xFFFFFFFFFFFFFFFFFFFFFFFFFFFFFFFFFFFFFFFF AND PUSH32 0xFA97702998BF8295E2A92740302950EE32D4ECB485F228852FC37D7167F69197 DUP3 TIMESTAMP DUP6 PUSH1 0x40 MLOAD PUSH2 0xE5D SWAP4 SWAP3 SWAP2 SWAP1 PUSH2 0x1D6C JUMP JUMPDEST PUSH1 0x40 MLOAD DUP1 SWAP2 SUB SWAP1 LOG2 POP POP JUMP JUMPDEST PUSH2 0xE71 PUSH2 0x137B JUMP JUMPDEST PUSH2 0xE7B PUSH1 0x0 PUSH2 0x153A JUMP JUMPDEST JUMP JUMPDEST PUSH1 0x0 DUP1 PUSH1 0x0 SWAP1 SLOAD SWAP1 PUSH2 0x100 EXP SWAP1 DIV PUSH20 0xFFFFFFFFFFFFFFFFFFFFFFFFFFFFFFFFFFFFFFFF AND SWAP1 POP SWAP1 JUMP JUMPDEST PUSH2 0xEAE PUSH2 0x137B JUMP JUMPDEST DUP1 PUSH1 0x2 DUP2 SWAP1 SSTORE POP PUSH32 0x2BCE37C591C5B0D254C3056688B080A088F160FFF82B6E79F456C8A20D5570F6 PUSH1 0x2 SLOAD TIMESTAMP DUP4 PUSH1 0x40 MLOAD PUSH2 0xEEA SWAP4 SWAP3 SWAP2 SWAP1 PUSH2 0x1D6C JUMP JUMPDEST PUSH1 0x40 MLOAD DUP1 SWAP2 SUB SWAP1 LOG1 POP JUMP JUMPDEST PUSH1 0x0 DUP2 GT PUSH2 0xF38 JUMPI PUSH1 0x40 MLOAD PUSH32 0x8C379A000000000000000000000000000000000000000000000000000000000 DUP2 MSTORE PUSH1 0x4 ADD PUSH2 0xF2F SWAP1 PUSH2 0x1E15 JUMP JUMPDEST PUSH1 0x40 MLOAD DUP1 SWAP2 SUB SWAP1 REVERT JUMPDEST PUSH1 0x0 PUSH1 0x3 PUSH1 0x0 CALLER PUSH20 0xFFFFFFFFFFFFFFFFFFFFFFFFFFFFFFFFFFFFFFFF AND PUSH20 0xFFFFFFFFFFFFFFFFFFFFFFFFFFFFFFFFFFFFFFFF AND DUP2 MSTORE PUSH1 0x20 ADD SWAP1 DUP2 MSTORE PUSH1 0x20 ADD PUSH1 0x0 KECCAK256 PUSH1 0x0 ADD SLOAD GT PUSH2 0xFBD JUMPI PUSH1 0x40 MLOAD PUSH32 0x8C379A000000000000000000000000000000000000000000000000000000000 DUP2 MSTORE PUSH1 0x4 ADD PUSH2 0xFB4 SWAP1 PUSH2 0x1E81 JUMP JUMPDEST PUSH1 0x40 MLOAD DUP1 SWAP2 SUB SWAP1 REVERT JUMPDEST PUSH1 0x0 PUSH1 0x3 PUSH1 0x0 CALLER PUSH20 0xFFFFFFFFFFFFFFFFFFFFFFFFFFFFFFFFFFFFFFFF AND PUSH20 0xFFFFFFFFFFFFFFFFFFFFFFFFFFFFFFFFFFFFFFFF AND DUP2 MSTORE PUSH1 0x20 ADD SWAP1 DUP2 MSTORE PUSH1 0x20 ADD PUSH1 0x0 KECCAK256 SWAP1 POP PUSH1 0x0 DUP2 PUSH1 0x1 ADD SLOAD TIMESTAMP PUSH2 0x1012 SWAP2 SWAP1 PUSH2 0x1955 JUMP JUMPDEST SWAP1 POP PUSH1 0x0 PUSH3 0x15180 DUP4 PUSH1 0x2 ADD SLOAD PUSH2 0x1029 SWAP2 SWAP1 PUSH2 0x1A0B JUMP JUMPDEST DUP3 PUSH3 0x15180 DUP6 PUSH1 0x2 ADD SLOAD PUSH2 0x103D SWAP2 SWAP1 PUSH2 0x1A0B JUMP JUMPDEST PUSH2 0x1047 SWAP2 SWAP1 PUSH2 0x1955 JUMP JUMPDEST DUP5 PUSH1 0x0 ADD SLOAD PUSH2 0x1056 SWAP2 SWAP1 PUSH2 0x1A0B JUMP JUMPDEST PUSH2 0x1060 SWAP2 SWAP1 PUSH2 0x1AE8 JUMP JUMPDEST SWAP1 POP PUSH1 0x0 DUP5 PUSH1 0x2 SLOAD PUSH2 0x1072 SWAP2 SWAP1 PUSH2 0x1A0B JUMP JUMPDEST SWAP1 POP PUSH1 0x0 DUP2 DUP6 PUSH1 0x0 ADD SLOAD PUSH2 0x1086 SWAP2 SWAP1 PUSH2 0x1EA1 JUMP JUMPDEST SWAP1 POP PUSH1 0x0 DUP7 DUP7 PUSH1 0x2 ADD SLOAD PUSH2 0x109A SWAP2 SWAP1 PUSH2 0x1EA1 JUMP JUMPDEST SWAP1 POP PUSH1 0x1 PUSH1 0x0 SWAP1 SLOAD SWAP1 PUSH2 0x100 EXP SWAP1 DIV PUSH20 0xFFFFFFFFFFFFFFFFFFFFFFFFFFFFFFFFFFFFFFFF AND PUSH20 0xFFFFFFFFFFFFFFFFFFFFFFFFFFFFFFFFFFFFFFFF AND PUSH4 0x23B872DD CALLER ADDRESS DUP7 PUSH1 0x40 MLOAD DUP5 PUSH4 0xFFFFFFFF AND PUSH1 0xE0 SHL DUP2 MSTORE PUSH1 0x4 ADD PUSH2 0x10FB SWAP4 SWAP3 SWAP2 SWAP1 PUSH2 0x1CC9 JUMP JUMPDEST PUSH1 0x20 PUSH1 0x40 MLOAD DUP1 DUP4 SUB DUP2 PUSH1 0x0 DUP8 GAS CALL ISZERO DUP1 ISZERO PUSH2 0x111A JUMPI RETURNDATASIZE PUSH1 0x0 DUP1 RETURNDATACOPY RETURNDATASIZE PUSH1 0x0 REVERT JUMPDEST POP POP POP POP PUSH1 0x40 MLOAD RETURNDATASIZE PUSH1 0x1F NOT PUSH1 0x1F DUP3 ADD AND DUP3 ADD DUP1 PUSH1 0x40 MSTORE POP DUP2 ADD SWAP1 PUSH2 0x113E SWAP2 SWAP1 PUSH2 0x19DE JUMP JUMPDEST PUSH2 0x117D JUMPI PUSH1 0x40 MLOAD PUSH32 0x8C379A000000000000000000000000000000000000000000000000000000000 DUP2 MSTORE PUSH1 0x4 ADD PUSH2 0x1174 SWAP1 PUSH2 0x1D4C JUMP JUMPDEST PUSH1 0x40 MLOAD DUP1 SWAP2 SUB SWAP1 REVERT JUMPDEST DUP2 DUP7 PUSH1 0x0 ADD DUP2 SWAP1 SSTORE POP DUP1 DUP7 PUSH1 0x2 ADD DUP2 SWAP1 SSTORE POP CALLER PUSH20 0xFFFFFFFFFFFFFFFFFFFFFFFFFFFFFFFFFFFFFFFF AND PUSH32 0xFA97702998BF8295E2A92740302950EE32D4ECB485F228852FC37D7167F69197 DUP4 TIMESTAMP DUP5 PUSH1 0x40 MLOAD PUSH2 0x11D9 SWAP4 SWAP3 SWAP2 SWAP1 PUSH2 0x1D6C JUMP JUMPDEST PUSH1 0x40 MLOAD DUP1 SWAP2 SUB SWAP1 LOG2 PUSH1 0x0 DUP5 GT ISZERO PUSH2 0x128C JUMPI PUSH1 0x1 PUSH1 0x0 SWAP1 SLOAD SWAP1 PUSH2 0x100 EXP SWAP1 DIV PUSH20 0xFFFFFFFFFFFFFFFFFFFFFFFFFFFFFFFFFFFFFFFF AND PUSH20 0xFFFFFFFFFFFFFFFFFFFFFFFFFFFFFFFFFFFFFFFF AND PUSH4 0xA9059CBB CALLER DUP7 PUSH1 0x40 MLOAD DUP4 PUSH4 0xFFFFFFFF AND PUSH1 0xE0 SHL DUP2 MSTORE PUSH1 0x4 ADD PUSH2 0x1247 SWAP3 SWAP2 SWAP1 PUSH2 0x1989 JUMP JUMPDEST PUSH1 0x20 PUSH1 0x40 MLOAD DUP1 DUP4 SUB DUP2 PUSH1 0x0 DUP8 GAS CALL ISZERO DUP1 ISZERO PUSH2 0x1266 JUMPI RETURNDATASIZE PUSH1 0x0 DUP1 RETURNDATACOPY RETURNDATASIZE PUSH1 0x0 REVERT JUMPDEST POP POP POP POP PUSH1 0x40 MLOAD RETURNDATASIZE PUSH1 0x1F NOT PUSH1 0x1F DUP3 ADD AND DUP3 ADD DUP1 PUSH1 0x40 MSTORE POP DUP2 ADD SWAP1 PUSH2 0x128A SWAP2 SWAP1 PUSH2 0x19DE JUMP JUMPDEST POP JUMPDEST POP POP POP POP POP POP POP JUMP JUMPDEST PUSH1 0x3 PUSH1 0x20 MSTORE DUP1 PUSH1 0x0 MSTORE PUSH1 0x40 PUSH1 0x0 KECCAK256 PUSH1 0x0 SWAP2 POP SWAP1 POP DUP1 PUSH1 0x0 ADD SLOAD SWAP1 DUP1 PUSH1 0x1 ADD SLOAD SWAP1 DUP1 PUSH1 0x2 ADD SLOAD SWAP1 DUP1 PUSH1 0x3 ADD PUSH1 0x0 SWAP1 SLOAD SWAP1 PUSH2 0x100 EXP SWAP1 DIV PUSH1 0xFF AND SWAP1 POP DUP5 JUMP JUMPDEST PUSH2 0x12DA PUSH2 0x137B JUMP JUMPDEST PUSH1 0x0 PUSH20 0xFFFFFFFFFFFFFFFFFFFFFFFFFFFFFFFFFFFFFFFF AND DUP2 PUSH20 0xFFFFFFFFFFFFFFFFFFFFFFFFFFFFFFFFFFFFFFFF AND SUB PUSH2 0x1349 JUMPI PUSH1 0x40 MLOAD PUSH32 0x8C379A000000000000000000000000000000000000000000000000000000000 DUP2 MSTORE PUSH1 0x4 ADD PUSH2 0x1340 SWAP1 PUSH2 0x1F47 JUMP JUMPDEST PUSH1 0x40 MLOAD DUP1 SWAP2 SUB SWAP1 REVERT JUMPDEST PUSH2 0x1352 DUP2 PUSH2 0x153A JUMP JUMPDEST POP JUMP JUMPDEST PUSH1 0x1 PUSH1 0x0 SWAP1 SLOAD SWAP1 PUSH2 0x100 EXP SWAP1 DIV PUSH20 0xFFFFFFFFFFFFFFFFFFFFFFFFFFFFFFFFFFFFFFFF AND DUP2 JUMP JUMPDEST PUSH2 0x1383 PUSH2 0x15FE JUMP JUMPDEST PUSH20 0xFFFFFFFFFFFFFFFFFFFFFFFFFFFFFFFFFFFFFFFF AND PUSH2 0x13A1 PUSH2 0xE7D JUMP JUMPDEST PUSH20 0xFFFFFFFFFFFFFFFFFFFFFFFFFFFFFFFFFFFFFFFF AND EQ PUSH2 0x13F7 JUMPI PUSH1 0x40 MLOAD PUSH32 0x8C379A000000000000000000000000000000000000000000000000000000000 DUP2 MSTORE PUSH1 0x4 ADD PUSH2 0x13EE SWAP1 PUSH2 0x1FB3 JUMP JUMPDEST PUSH1 0x40 MLOAD DUP1 SWAP2 SUB SWAP1 REVERT JUMPDEST JUMP JUMPDEST PUSH1 0x0 DUP1 PUSH1 0x0 SWAP1 POP PUSH1 0x0 JUMPDEST PUSH1 0x4 DUP1 SLOAD SWAP1 POP DUP2 LT ISZERO PUSH2 0x1532 JUMPI PUSH1 0x0 PUSH1 0x4 DUP3 DUP2 SLOAD DUP2 LT PUSH2 0x1426 JUMPI PUSH2 0x1425 PUSH2 0x1FD3 JUMP JUMPDEST JUMPDEST SWAP1 PUSH1 0x0 MSTORE PUSH1 0x20 PUSH1 0x0 KECCAK256 ADD PUSH1 0x0 SWAP1 SLOAD SWAP1 PUSH2 0x100 EXP SWAP1 DIV PUSH20 0xFFFFFFFFFFFFFFFFFFFFFFFFFFFFFFFFFFFFFFFF AND SWAP1 POP PUSH1 0x0 PUSH1 0x3 PUSH1 0x0 DUP4 PUSH20 0xFFFFFFFFFFFFFFFFFFFFFFFFFFFFFFFFFFFFFFFF AND PUSH20 0xFFFFFFFFFFFFFFFFFFFFFFFFFFFFFFFFFFFFFFFF AND DUP2 MSTORE PUSH1 0x20 ADD SWAP1 DUP2 MSTORE PUSH1 0x20 ADD PUSH1 0x0 KECCAK256 SWAP1 POP PUSH1 0x0 DUP2 PUSH1 0x1 ADD SLOAD TIMESTAMP PUSH2 0x14A8 SWAP2 SWAP1 PUSH2 0x1955 JUMP JUMPDEST SWAP1 POP PUSH3 0x15180 DUP3 PUSH1 0x2 ADD SLOAD PUSH2 0x14BD SWAP2 SWAP1 PUSH2 0x1A0B JUMP JUMPDEST DUP2 LT ISZERO PUSH2 0x151C JUMPI PUSH3 0x15180 DUP3 PUSH1 0x2 ADD SLOAD PUSH2 0x14D7 SWAP2 SWAP1 PUSH2 0x1A0B JUMP JUMPDEST DUP2 PUSH3 0x15180 DUP5 PUSH1 0x2 ADD SLOAD PUSH2 0x14EB SWAP2 SWAP1 PUSH2 0x1A0B JUMP JUMPDEST PUSH2 0x14F5 SWAP2 SWAP1 PUSH2 0x1955 JUMP JUMPDEST DUP4 PUSH1 0x0 ADD SLOAD PUSH2 0x1504 SWAP2 SWAP1 PUSH2 0x1A0B JUMP JUMPDEST PUSH2 0x150E SWAP2 SWAP1 PUSH2 0x1AE8 JUMP JUMPDEST DUP6 PUSH2 0x1519 SWAP2 SWAP1 PUSH2 0x1EA1 JUMP JUMPDEST SWAP5 POP JUMPDEST POP POP POP DUP1 DUP1 PUSH2 0x152A SWAP1 PUSH2 0x2002 JUMP JUMPDEST SWAP2 POP POP PUSH2 0x1403 JUMP JUMPDEST POP DUP1 SWAP2 POP POP SWAP1 JUMP JUMPDEST PUSH1 0x0 DUP1 PUSH1 0x0 SWAP1 SLOAD SWAP1 PUSH2 0x100 EXP SWAP1 DIV PUSH20 0xFFFFFFFFFFFFFFFFFFFFFFFFFFFFFFFFFFFFFFFF AND SWAP1 POP DUP2 PUSH1 0x0 DUP1 PUSH2 0x100 EXP DUP2 SLOAD DUP2 PUSH20 0xFFFFFFFFFFFFFFFFFFFFFFFFFFFFFFFFFFFFFFFF MUL NOT AND SWAP1 DUP4 PUSH20 0xFFFFFFFFFFFFFFFFFFFFFFFFFFFFFFFFFFFFFFFF AND MUL OR SWAP1 SSTORE POP DUP2 PUSH20 0xFFFFFFFFFFFFFFFFFFFFFFFFFFFFFFFFFFFFFFFF AND DUP2 PUSH20 0xFFFFFFFFFFFFFFFFFFFFFFFFFFFFFFFFFFFFFFFF AND PUSH32 0x8BE0079C531659141344CD1FD0A4F28419497F9722A3DAAFE3B4186F6B6457E0 PUSH1 0x40 MLOAD PUSH1 0x40 MLOAD DUP1 SWAP2 SUB SWAP1 LOG3 POP POP JUMP JUMPDEST PUSH1 0x0 CALLER SWAP1 POP SWAP1 JUMP JUMPDEST PUSH1 0x0 DUP1 REVERT JUMPDEST PUSH1 0x0 PUSH20 0xFFFFFFFFFFFFFFFFFFFFFFFFFFFFFFFFFFFFFFFF DUP3 AND SWAP1 POP SWAP2 SWAP1 POP JUMP JUMPDEST PUSH1 0x0 PUSH2 0x1636 DUP3 PUSH2 0x160B JUMP JUMPDEST SWAP1 POP SWAP2 SWAP1 POP JUMP JUMPDEST PUSH2 0x1646 DUP2 PUSH2 0x162B JUMP JUMPDEST DUP2 EQ PUSH2 0x1651 JUMPI PUSH1 0x0 DUP1 REVERT JUMPDEST POP JUMP JUMPDEST PUSH1 0x0 DUP2 CALLDATALOAD SWAP1 POP PUSH2 0x1663 DUP2 PUSH2 0x163D JUMP JUMPDEST SWAP3 SWAP2 POP POP JUMP JUMPDEST PUSH1 0x0 PUSH1 0x20 DUP3 DUP5 SUB SLT ISZERO PUSH2 0x167F JUMPI PUSH2 0x167E PUSH2 0x1606 JUMP JUMPDEST JUMPDEST PUSH1 0x0 PUSH2 0x168D DUP5 DUP3 DUP6 ADD PUSH2 0x1654 JUMP JUMPDEST SWAP2 POP POP SWAP3 SWAP2 POP POP JUMP JUMPDEST PUSH1 0x0 DUP2 SWAP1 POP SWAP2 SWAP1 POP JUMP JUMPDEST PUSH2 0x16A9 DUP2 PUSH2 0x1696 JUMP JUMPDEST DUP3 MSTORE POP POP JUMP JUMPDEST PUSH1 0x0 PUSH1 0x20 DUP3 ADD SWAP1 POP PUSH2 0x16C4 PUSH1 0x0 DUP4 ADD DUP5 PUSH2 0x16A0 JUMP JUMPDEST SWAP3 SWAP2 POP POP JUMP JUMPDEST PUSH2 0x16D3 DUP2 PUSH2 0x1696 JUMP JUMPDEST DUP2 EQ PUSH2 0x16DE JUMPI PUSH1 0x0 DUP1 REVERT JUMPDEST POP JUMP JUMPDEST PUSH1 0x0 DUP2 CALLDATALOAD SWAP1 POP PUSH2 0x16F0 DUP2 PUSH2 0x16CA JUMP JUMPDEST SWAP3 SWAP2 POP POP JUMP JUMPDEST PUSH1 0x0 PUSH1 0x20 DUP3 DUP5 SUB SLT ISZERO PUSH2 0x170C JUMPI PUSH2 0x170B PUSH2 0x1606 JUMP JUMPDEST JUMPDEST PUSH1 0x0 PUSH2 0x171A DUP5 DUP3 DUP6 ADD PUSH2 0x16E1 JUMP JUMPDEST SWAP2 POP POP SWAP3 SWAP2 POP POP JUMP JUMPDEST PUSH2 0x172C DUP2 PUSH2 0x162B JUMP JUMPDEST DUP3 MSTORE POP POP JUMP JUMPDEST PUSH1 0x0 PUSH1 0x20 DUP3 ADD SWAP1 POP PUSH2 0x1747 PUSH1 0x0 DUP4 ADD DUP5 PUSH2 0x1723 JUMP JUMPDEST SWAP3 SWAP2 POP POP JUMP JUMPDEST PUSH1 0x0 DUP1 PUSH1 0x40 DUP4 DUP6 SUB SLT ISZERO PUSH2 0x1764 JUMPI PUSH2 0x1763 PUSH2 0x1606 JUMP JUMPDEST JUMPDEST PUSH1 0x0 PUSH2 0x1772 DUP6 DUP3 DUP7 ADD PUSH2 0x1654 JUMP JUMPDEST SWAP3 POP POP PUSH1 0x20 PUSH2 0x1783 DUP6 DUP3 DUP7 ADD PUSH2 0x16E1 JUMP JUMPDEST SWAP2 POP POP SWAP3 POP SWAP3 SWAP1 POP JUMP JUMPDEST PUSH1 0x0 DUP2 ISZERO ISZERO SWAP1 POP SWAP2 SWAP1 POP JUMP JUMPDEST PUSH2 0x17A2 DUP2 PUSH2 0x178D JUMP JUMPDEST DUP3 MSTORE POP POP JUMP JUMPDEST PUSH1 0x0 PUSH1 0x80 DUP3 ADD SWAP1 POP PUSH2 0x17BD PUSH1 0x0 DUP4 ADD DUP8 PUSH2 0x16A0 JUMP JUMPDEST PUSH2 0x17CA PUSH1 0x20 DUP4 ADD DUP7 PUSH2 0x16A0 JUMP JUMPDEST PUSH2 0x17D7 PUSH1 0x40 DUP4 ADD DUP6 PUSH2 0x16A0 JUMP JUMPDEST PUSH2 0x17E4 PUSH1 0x60 DUP4 ADD DUP5 PUSH2 0x1799 JUMP JUMPDEST SWAP6 SWAP5 POP POP POP POP POP JUMP JUMPDEST PUSH1 0x0 DUP2 SWAP1 POP SWAP2 SWAP1 POP JUMP JUMPDEST PUSH1 0x0 PUSH2 0x1812 PUSH2 0x180D PUSH2 0x1808 DUP5 PUSH2 0x160B JUMP JUMPDEST PUSH2 0x17ED JUMP JUMPDEST PUSH2 0x160B JUMP JUMPDEST SWAP1 POP SWAP2 SWAP1 POP JUMP JUMPDEST PUSH1 0x0 PUSH2 0x1824 DUP3 PUSH2 0x17F7 JUMP JUMPDEST SWAP1 POP SWAP2 SWAP1 POP JUMP JUMPDEST PUSH1 0x0 PUSH2 0x1836 DUP3 PUSH2 0x1819 JUMP JUMPDEST SWAP1 POP SWAP2 SWAP1 POP JUMP JUMPDEST PUSH2 0x1846 DUP2 PUSH2 0x182B JUMP JUMPDEST DUP3 MSTORE POP POP JUMP JUMPDEST PUSH1 0x0 PUSH1 0x20 DUP3 ADD SWAP1 POP PUSH2 0x1861 PUSH1 0x0 DUP4 ADD DUP5 PUSH2 0x183D JUMP JUMPDEST SWAP3 SWAP2 POP POP JUMP JUMPDEST PUSH1 0x0 DUP2 MLOAD SWAP1 POP PUSH2 0x1876 DUP2 PUSH2 0x16CA JUMP JUMPDEST SWAP3 SWAP2 POP POP JUMP JUMPDEST PUSH1 0x0 PUSH1 0x20 DUP3 DUP5 SUB SLT ISZERO PUSH2 0x1892 JUMPI PUSH2 0x1891 PUSH2 0x1606 JUMP JUMPDEST JUMPDEST PUSH1 0x0 PUSH2 0x18A0 DUP5 DUP3 DUP6 ADD PUSH2 0x1867 JUMP JUMPDEST SWAP2 POP POP SWAP3 SWAP2 POP POP JUMP JUMPDEST PUSH1 0x0 DUP3 DUP3 MSTORE PUSH1 0x20 DUP3 ADD SWAP1 POP SWAP3 SWAP2 POP POP JUMP JUMPDEST PUSH32 0x4E6F20776974686472617761626C6520616D6F756E7420617661696C61626C65 PUSH1 0x0 DUP3 ADD MSTORE POP JUMP JUMPDEST PUSH1 0x0 PUSH2 0x18F0 PUSH1 0x20 DUP4 PUSH2 0x18A9 JUMP JUMPDEST SWAP2 POP PUSH2 0x18FB DUP3 PUSH2 0x18BA JUMP JUMPDEST PUSH1 0x20 DUP3 ADD SWAP1 POP SWAP2 SWAP1 POP JUMP JUMPDEST PUSH1 0x0 PUSH1 0x20 DUP3 ADD SWAP1 POP DUP2 DUP2 SUB PUSH1 0x0 DUP4 ADD MSTORE PUSH2 0x191F DUP2 PUSH2 0x18E3 JUMP JUMPDEST SWAP1 POP SWAP2 SWAP1 POP JUMP JUMPDEST PUSH32 0x4E487B7100000000000000000000000000000000000000000000000000000000 PUSH1 0x0 MSTORE PUSH1 0x11 PUSH1 0x4 MSTORE PUSH1 0x24 PUSH1 0x0 REVERT JUMPDEST PUSH1 0x0 PUSH2 0x1960 DUP3 PUSH2 0x1696 JUMP JUMPDEST SWAP2 POP PUSH2 0x196B DUP4 PUSH2 0x1696 JUMP JUMPDEST SWAP3 POP DUP3 DUP3 SUB SWAP1 POP DUP2 DUP2 GT ISZERO PUSH2 0x1983 JUMPI PUSH2 0x1982 PUSH2 0x1926 JUMP JUMPDEST JUMPDEST SWAP3 SWAP2 POP POP JUMP JUMPDEST PUSH1 0x0 PUSH1 0x40 DUP3 ADD SWAP1 POP PUSH2 0x199E PUSH1 0x0 DUP4 ADD DUP6 PUSH2 0x1723 JUMP JUMPDEST PUSH2 0x19AB PUSH1 0x20 DUP4 ADD DUP5 PUSH2 0x16A0 JUMP JUMPDEST SWAP4 SWAP3 POP POP POP JUMP JUMPDEST PUSH2 0x19BB DUP2 PUSH2 0x178D JUMP JUMPDEST DUP2 EQ PUSH2 0x19C6 JUMPI PUSH1 0x0 DUP1 REVERT JUMPDEST POP JUMP JUMPDEST PUSH1 0x0 DUP2 MLOAD SWAP1 POP PUSH2 0x19D8 DUP2 PUSH2 0x19B2 JUMP JUMPDEST SWAP3 SWAP2 POP POP JUMP JUMPDEST PUSH1 0x0 PUSH1 0x20 DUP3 DUP5 SUB SLT ISZERO PUSH2 0x19F4 JUMPI PUSH2 0x19F3 PUSH2 0x1606 JUMP JUMPDEST JUMPDEST PUSH1 0x0 PUSH2 0x1A02 DUP5 DUP3 DUP6 ADD PUSH2 0x19C9 JUMP JUMPDEST SWAP2 POP POP SWAP3 SWAP2 POP POP JUMP JUMPDEST PUSH1 0x0 PUSH2 0x1A16 DUP3 PUSH2 0x1696 JUMP JUMPDEST SWAP2 POP PUSH2 0x1A21 DUP4 PUSH2 0x1696 JUMP JUMPDEST SWAP3 POP DUP3 DUP3 MUL PUSH2 0x1A2F DUP2 PUSH2 0x1696 JUMP JUMPDEST SWAP2 POP DUP3 DUP3 DIV DUP5 EQ DUP4 ISZERO OR PUSH2 0x1A46 JUMPI PUSH2 0x1A45 PUSH2 0x1926 JUMP JUMPDEST JUMPDEST POP SWAP3 SWAP2 POP POP JUMP JUMPDEST PUSH32 0x537562736372697074696F6E20616C7265616479206578706972656400000000 PUSH1 0x0 DUP3 ADD MSTORE POP JUMP JUMPDEST PUSH1 0x0 PUSH2 0x1A83 PUSH1 0x1C DUP4 PUSH2 0x18A9 JUMP JUMPDEST SWAP2 POP PUSH2 0x1A8E DUP3 PUSH2 0x1A4D JUMP JUMPDEST PUSH1 0x20 DUP3 ADD SWAP1 POP SWAP2 SWAP1 POP JUMP JUMPDEST PUSH1 0x0 PUSH1 0x20 DUP3 ADD SWAP1 POP DUP2 DUP2 SUB PUSH1 0x0 DUP4 ADD MSTORE PUSH2 0x1AB2 DUP2 PUSH2 0x1A76 JUMP JUMPDEST SWAP1 POP SWAP2 SWAP1 POP JUMP JUMPDEST PUSH32 0x4E487B7100000000000000000000000000000000000000000000000000000000 PUSH1 0x0 MSTORE PUSH1 0x12 PUSH1 0x4 MSTORE PUSH1 0x24 PUSH1 0x0 REVERT JUMPDEST PUSH1 0x0 PUSH2 0x1AF3 DUP3 PUSH2 0x1696 JUMP JUMPDEST SWAP2 POP PUSH2 0x1AFE DUP4 PUSH2 0x1696 JUMP JUMPDEST SWAP3 POP DUP3 PUSH2 0x1B0E JUMPI PUSH2 0x1B0D PUSH2 0x1AB9 JUMP JUMPDEST JUMPDEST DUP3 DUP3 DIV SWAP1 POP SWAP3 SWAP2 POP POP JUMP JUMPDEST PUSH32 0x496E73756666696369656E742062616C616E6365000000000000000000000000 PUSH1 0x0 DUP3 ADD MSTORE POP JUMP JUMPDEST PUSH1 0x0 PUSH2 0x1B4F PUSH1 0x14 DUP4 PUSH2 0x18A9 JUMP JUMPDEST SWAP2 POP PUSH2 0x1B5A DUP3 PUSH2 0x1B19 JUMP JUMPDEST PUSH1 0x20 DUP3 ADD SWAP1 POP SWAP2 SWAP1 POP JUMP JUMPDEST PUSH1 0x0 PUSH1 0x20 DUP3 ADD SWAP1 POP DUP2 DUP2 SUB PUSH1 0x0 DUP4 ADD MSTORE PUSH2 0x1B7E DUP2 PUSH2 0x1B42 JUMP JUMPDEST SWAP1 POP SWAP2 SWAP1 POP JUMP JUMPDEST PUSH32 0x43616E6E6F74207769746864726177207061796D656E7420746F6B656E000000 PUSH1 0x0 DUP3 ADD MSTORE POP JUMP JUMPDEST PUSH1 0x0 PUSH2 0x1BBB PUSH1 0x1D DUP4 PUSH2 0x18A9 JUMP JUMPDEST SWAP2 POP PUSH2 0x1BC6 DUP3 PUSH2 0x1B85 JUMP JUMPDEST PUSH1 0x20 DUP3 ADD SWAP1 POP SWAP2 SWAP1 POP JUMP JUMPDEST PUSH1 0x0 PUSH1 0x20 DUP3 ADD SWAP1 POP DUP2 DUP2 SUB PUSH1 0x0 DUP4 ADD MSTORE PUSH2 0x1BEA DUP2 PUSH2 0x1BAE JUMP JUMPDEST SWAP1 POP SWAP2 SWAP1 POP JUMP JUMPDEST PUSH32 0x4475726174696F6E206D7573742062652067726561746572207468616E203000 PUSH1 0x0 DUP3 ADD MSTORE POP JUMP JUMPDEST PUSH1 0x0 PUSH2 0x1C27 PUSH1 0x1F DUP4 PUSH2 0x18A9 JUMP JUMPDEST SWAP2 POP PUSH2 0x1C32 DUP3 PUSH2 0x1BF1 JUMP JUMPDEST PUSH1 0x20 DUP3 ADD SWAP1 POP SWAP2 SWAP1 POP JUMP JUMPDEST PUSH1 0x0 PUSH1 0x20 DUP3 ADD SWAP1 POP DUP2 DUP2 SUB PUSH1 0x0 DUP4 ADD MSTORE PUSH2 0x1C56 DUP2 PUSH2 0x1C1A JUMP JUMPDEST SWAP1 POP SWAP2 SWAP1 POP JUMP JUMPDEST PUSH32 0x537562736372697074696F6E20616C7265616479206578697374730000000000 PUSH1 0x0 DUP3 ADD MSTORE POP JUMP JUMPDEST PUSH1 0x0 PUSH2 0x1C93 PUSH1 0x1B DUP4 PUSH2 0x18A9 JUMP JUMPDEST SWAP2 POP PUSH2 0x1C9E DUP3 PUSH2 0x1C5D JUMP JUMPDEST PUSH1 0x20 DUP3 ADD SWAP1 POP SWAP2 SWAP1 POP JUMP JUMPDEST PUSH1 0x0 PUSH1 0x20 DUP3 ADD SWAP1 POP DUP2 DUP2 SUB PUSH1 0x0 DUP4 ADD MSTORE PUSH2 0x1CC2 DUP2 PUSH2 0x1C86 JUMP JUMPDEST SWAP1 POP SWAP2 SWAP1 POP JUMP JUMPDEST PUSH1 0x0 PUSH1 0x60 DUP3 ADD SWAP1 POP PUSH2 0x1CDE PUSH1 0x0 DUP4 ADD DUP7 PUSH2 0x1723 JUMP JUMPDEST PUSH2 0x1CEB PUSH1 0x20 DUP4 ADD DUP6 PUSH2 0x1723 JUMP JUMPDEST PUSH2 0x1CF8 PUSH1 0x40 DUP4 ADD DUP5 PUSH2 0x16A0 JUMP JUMPDEST SWAP5 SWAP4 POP POP POP POP JUMP JUMPDEST PUSH32 0x546F6B656E207472616E73666572206661696C65640000000000000000000000 PUSH1 0x0 DUP3 ADD MSTORE POP JUMP JUMPDEST PUSH1 0x0 PUSH2 0x1D36 PUSH1 0x15 DUP4 PUSH2 0x18A9 JUMP JUMPDEST SWAP2 POP PUSH2 0x1D41 DUP3 PUSH2 0x1D00 JUMP JUMPDEST PUSH1 0x20 DUP3 ADD SWAP1 POP SWAP2 SWAP1 POP JUMP JUMPDEST PUSH1 0x0 PUSH1 0x20 DUP3 ADD SWAP1 POP DUP2 DUP2 SUB PUSH1 0x0 DUP4 ADD MSTORE PUSH2 0x1D65 DUP2 PUSH2 0x1D29 JUMP JUMPDEST SWAP1 POP SWAP2 SWAP1 POP JUMP JUMPDEST PUSH1 0x0 PUSH1 0x60 DUP3 ADD SWAP1 POP PUSH2 0x1D81 PUSH1 0x0 DUP4 ADD DUP7 PUSH2 0x16A0 JUMP JUMPDEST PUSH2 0x1D8E PUSH1 0x20 DUP4 ADD DUP6 PUSH2 0x16A0 JUMP JUMPDEST PUSH2 0x1D9B PUSH1 0x40 DUP4 ADD DUP5 PUSH2 0x16A0 JUMP JUMPDEST SWAP5 SWAP4 POP POP POP POP JUMP JUMPDEST PUSH32 0x4164646974696F6E616C2064617973206D757374206265206772656174657220 PUSH1 0x0 DUP3 ADD MSTORE PUSH32 0x7468616E20300000000000000000000000000000000000000000000000000000 PUSH1 0x20 DUP3 ADD MSTORE POP JUMP JUMPDEST PUSH1 0x0 PUSH2 0x1DFF PUSH1 0x26 DUP4 PUSH2 0x18A9 JUMP JUMPDEST SWAP2 POP PUSH2 0x1E0A DUP3 PUSH2 0x1DA3 JUMP JUMPDEST PUSH1 0x40 DUP3 ADD SWAP1 POP SWAP2 SWAP1 POP JUMP JUMPDEST PUSH1 0x0 PUSH1 0x20 DUP3 ADD SWAP1 POP DUP2 DUP2 SUB PUSH1 0x0 DUP4 ADD MSTORE PUSH2 0x1E2E DUP2 PUSH2 0x1DF2 JUMP JUMPDEST SWAP1 POP SWAP2 SWAP1 POP JUMP JUMPDEST PUSH32 0x4E6F2061637469766520737562736372697074696F6E00000000000000000000 PUSH1 0x0 DUP3 ADD MSTORE POP JUMP JUMPDEST PUSH1 0x0 PUSH2 0x1E6B PUSH1 0x16 DUP4 PUSH2 0x18A9 JUMP JUMPDEST SWAP2 POP PUSH2 0x1E76 DUP3 PUSH2 0x1E35 JUMP JUMPDEST PUSH1 0x20 DUP3 ADD SWAP1 POP SWAP2 SWAP1 POP JUMP JUMPDEST PUSH1 0x0 PUSH1 0x20 DUP3 ADD SWAP1 POP DUP2 DUP2 SUB PUSH1 0x0 DUP4 ADD MSTORE PUSH2 0x1E9A DUP2 PUSH2 0x1E5E JUMP JUMPDEST SWAP1 POP SWAP2 SWAP1 POP JUMP JUMPDEST PUSH1 0x0 PUSH2 0x1EAC DUP3 PUSH2 0x1696 JUMP JUMPDEST SWAP2 POP PUSH2 0x1EB7 DUP4 PUSH2 0x1696 JUMP JUMPDEST SWAP3 POP DUP3 DUP3 ADD SWAP1 POP DUP1 DUP3 GT ISZERO PUSH2 0x1ECF JUMPI PUSH2 0x1ECE PUSH2 0x1926 JUMP JUMPDEST JUMPDEST SWAP3 SWAP2 POP POP JUMP JUMPDEST PUSH32 0x4F776E61626C653A206E6577206F776E657220697320746865207A65726F2061 PUSH1 0x0 DUP3 ADD MSTORE PUSH32 0x6464726573730000000000000000000000000000000000000000000000000000 PUSH1 0x20 DUP3 ADD MSTORE POP JUMP JUMPDEST PUSH1 0x0 PUSH2 0x1F31 PUSH1 0x26 DUP4 PUSH2 0x18A9 JUMP JUMPDEST SWAP2 POP PUSH2 0x1F3C DUP3 PUSH2 0x1ED5 JUMP JUMPDEST PUSH1 0x40 DUP3 ADD SWAP1 POP SWAP2 SWAP1 POP JUMP JUMPDEST PUSH1 0x0 PUSH1 0x20 DUP3 ADD SWAP1 POP DUP2 DUP2 SUB PUSH1 0x0 DUP4 ADD MSTORE PUSH2 0x1F60 DUP2 PUSH2 0x1F24 JUMP JUMPDEST SWAP1 POP SWAP2 SWAP1 POP JUMP JUMPDEST PUSH32 0x4F776E61626C653A2063616C6C6572206973206E6F7420746865206F776E6572 PUSH1 0x0 DUP3 ADD MSTORE POP JUMP JUMPDEST PUSH1 0x0 PUSH2 0x1F9D PUSH1 0x20 DUP4 PUSH2 0x18A9 JUMP JUMPDEST SWAP2 POP PUSH2 0x1FA8 DUP3 PUSH2 0x1F67 JUMP JUMPDEST PUSH1 0x20 DUP3 ADD SWAP1 POP SWAP2 SWAP1 POP JUMP JUMPDEST PUSH1 0x0 PUSH1 0x20 DUP3 ADD SWAP1 POP DUP2 DUP2 SUB PUSH1 0x0 DUP4 ADD MSTORE PUSH2 0x1FCC DUP2 PUSH2 0x1F90 JUMP JUMPDEST SWAP1 POP SWAP2 SWAP1 POP JUMP JUMPDEST PUSH32 0x4E487B7100000000000000000000000000000000000000000000000000000000 PUSH1 0x0 MSTORE PUSH1 0x32 PUSH1 0x4 MSTORE PUSH1 0x24 PUSH1 0x0 REVERT JUMPDEST PUSH1 0x0 PUSH2 0x200D DUP3 PUSH2 0x1696 JUMP JUMPDEST SWAP2 POP PUSH32 0xFFFFFFFFFFFFFFFFFFFFFFFFFFFFFFFFFFFFFFFFFFFFFFFFFFFFFFFFFFFFFFFF DUP3 SUB PUSH2 0x203F JUMPI PUSH2 0x203E PUSH2 0x1926 JUMP JUMPDEST JUMPDEST PUSH1 0x1 DUP3 ADD SWAP1 POP SWAP2 SWAP1 POP JUMP INVALID LOG2 PUSH5 0x6970667358 0x22 SLT KECCAK256 PUSH18 0xF42A750D1638BD1B9CEECAE339ECD48665D6 0xF8 DUP16 0x49 0xC9 PUSH30 0x41338C7D80E2BCD464736F6C634300081200330000000000000000000000 "
		},
		"gasEstimates": {
			"creation": {
				"codeDepositCost": "1664000",
				"executionCost": "infinite",
				"totalCost": "infinite"
			},
			"external": {
				"cancelSubscription()": "infinite",
				"getTimeLeft(address)": "infinite",
				"increaseSubscription(uint256)": "infinite",
				"initialPrice()": "2497",
				"owner()": "2589",
				"renounceOwnership()": "30443",
				"setPrice(uint256)": "infinite",
				"startSubscription(uint256)": "infinite",
				"subscriptions(address)": "infinite",
				"token()": "infinite",
				"transferOwnership(address)": "30810",
				"users(uint256)": "5001",
				"withdrawAnyERC20(address,uint256)": "infinite",
				"withdrawEther(uint256)": "infinite",
				"withdrawPaymentTokens()": "infinite"
			},
			"internal": {
				"calculateTotalRefundable()": "infinite"
			}
		},
		"methodIdentifiers": {
			"cancelSubscription()": "24e9edb0",
			"getTimeLeft(address)": "111eb8b1",
			"increaseSubscription(uint256)": "dce2556f",
			"initialPrice()": "1d0806ae",
			"owner()": "8da5cb5b",
			"renounceOwnership()": "715018a6",
			"setPrice(uint256)": "91b7f5ed",
			"startSubscription(uint256)": "5cf504e1",
			"subscriptions(address)": "f046395a",
			"token()": "fc0c546a",
			"transferOwnership(address)": "f2fde38b",
			"users(uint256)": "365b98b2",
			"withdrawAnyERC20(address,uint256)": "419fa793",
			"withdrawEther(uint256)": "3bed33ce",
			"withdrawPaymentTokens()": "02778fc0"
		}
	},
	"abi": [
		{
			"inputs": [
				{
					"internalType": "address",
					"name": "_tokenAddress",
					"type": "address"
				}
			],
			"stateMutability": "nonpayable",
			"type": "constructor"
		},
		{
			"anonymous": false,
			"inputs": [
				{
					"indexed": true,
					"internalType": "address",
					"name": "previousOwner",
					"type": "address"
				},
				{
					"indexed": true,
					"internalType": "address",
					"name": "newOwner",
					"type": "address"
				}
			],
			"name": "OwnershipTransferred",
			"type": "event"
		},
		{
			"anonymous": false,
			"inputs": [
				{
					"indexed": false,
					"internalType": "uint256",
					"name": "oldPrice",
					"type": "uint256"
				},
				{
					"indexed": false,
					"internalType": "uint256",
					"name": "startDate",
					"type": "uint256"
				},
				{
					"indexed": false,
					"internalType": "uint256",
					"name": "newPrice",
					"type": "uint256"
				}
			],
			"name": "PriceChanged",
			"type": "event"
		},
		{
			"anonymous": false,
			"inputs": [
				{
					"indexed": true,
					"internalType": "address",
					"name": "user",
					"type": "address"
				},
				{
					"indexed": false,
					"internalType": "uint256",
					"name": "refundAmount",
					"type": "uint256"
				}
			],
			"name": "SubscriptionCancelled",
			"type": "event"
		},
		{
			"anonymous": false,
			"inputs": [
				{
					"indexed": true,
					"internalType": "address",
					"name": "user",
					"type": "address"
				},
				{
					"indexed": false,
					"internalType": "uint256",
					"name": "depositAmount",
					"type": "uint256"
				},
				{
					"indexed": false,
					"internalType": "uint256",
					"name": "startDate",
					"type": "uint256"
				},
				{
					"indexed": false,
					"internalType": "uint256",
					"name": "durationInDays",
					"type": "uint256"
				}
			],
			"name": "SubscriptionStarted",
			"type": "event"
		},
		{
			"anonymous": false,
			"inputs": [
				{
					"indexed": true,
					"internalType": "address",
					"name": "owner",
					"type": "address"
				},
				{
					"indexed": true,
					"internalType": "address",
					"name": "tokenAddress",
					"type": "address"
				},
				{
					"indexed": false,
					"internalType": "uint256",
					"name": "amount",
					"type": "uint256"
				}
			],
			"name": "TokensWithdrawn",
			"type": "event"
		},
		{
			"inputs": [],
			"name": "cancelSubscription",
			"outputs": [],
			"stateMutability": "nonpayable",
			"type": "function"
		},
		{
			"inputs": [
				{
					"internalType": "address",
					"name": "user",
					"type": "address"
				}
			],
			"name": "getTimeLeft",
			"outputs": [
				{
					"internalType": "uint256",
					"name": "",
					"type": "uint256"
				}
			],
			"stateMutability": "view",
			"type": "function"
		},
		{
			"inputs": [
				{
					"internalType": "uint256",
					"name": "additionalDays",
					"type": "uint256"
				}
			],
			"name": "increaseSubscription",
			"outputs": [],
			"stateMutability": "nonpayable",
			"type": "function"
		},
		{
			"inputs": [],
			"name": "initialPrice",
			"outputs": [
				{
					"internalType": "uint256",
					"name": "",
					"type": "uint256"
				}
			],
			"stateMutability": "view",
			"type": "function"
		},
		{
			"inputs": [],
			"name": "owner",
			"outputs": [
				{
					"internalType": "address",
					"name": "",
					"type": "address"
				}
			],
			"stateMutability": "view",
			"type": "function"
		},
		{
			"inputs": [],
			"name": "renounceOwnership",
			"outputs": [],
			"stateMutability": "nonpayable",
			"type": "function"
		},
		{
			"inputs": [
				{
					"internalType": "uint256",
					"name": "newPrice",
					"type": "uint256"
				}
			],
			"name": "setPrice",
			"outputs": [],
			"stateMutability": "nonpayable",
			"type": "function"
		},
		{
			"inputs": [
				{
					"internalType": "uint256",
					"name": "durationInDays",
					"type": "uint256"
				}
			],
			"name": "startSubscription",
			"outputs": [],
			"stateMutability": "nonpayable",
			"type": "function"
		},
		{
			"inputs": [
				{
					"internalType": "address",
					"name": "",
					"type": "address"
				}
			],
			"name": "subscriptions",
			"outputs": [
				{
					"internalType": "uint256",
					"name": "depositAmount",
					"type": "uint256"
				},
				{
					"internalType": "uint256",
					"name": "startDate",
					"type": "uint256"
				},
				{
					"internalType": "uint256",
					"name": "durationInDays",
					"type": "uint256"
				},
				{
					"internalType": "bool",
					"name": "isActive",
					"type": "bool"
				}
			],
			"stateMutability": "view",
			"type": "function"
		},
		{
			"inputs": [],
			"name": "token",
			"outputs": [
				{
					"internalType": "contract IERC20",
					"name": "",
					"type": "address"
				}
			],
			"stateMutability": "view",
			"type": "function"
		},
		{
			"inputs": [
				{
					"internalType": "address",
					"name": "newOwner",
					"type": "address"
				}
			],
			"name": "transferOwnership",
			"outputs": [],
			"stateMutability": "nonpayable",
			"type": "function"
		},
		{
			"inputs": [
				{
					"internalType": "uint256",
					"name": "",
					"type": "uint256"
				}
			],
			"name": "users",
			"outputs": [
				{
					"internalType": "address",
					"name": "",
					"type": "address"
				}
			],
			"stateMutability": "view",
			"type": "function"
		},
		{
			"inputs": [
				{
					"internalType": "address",
					"name": "tokenAddress",
					"type": "address"
				},
				{
					"internalType": "uint256",
					"name": "amount",
					"type": "uint256"
				}
			],
			"name": "withdrawAnyERC20",
			"outputs": [],
			"stateMutability": "nonpayable",
			"type": "function"
		},
		{
			"inputs": [
				{
					"internalType": "uint256",
					"name": "amount",
					"type": "uint256"
				}
			],
			"name": "withdrawEther",
			"outputs": [],
			"stateMutability": "nonpayable",
			"type": "function"
		},
		{
			"inputs": [],
			"name": "withdrawPaymentTokens",
			"outputs": [],
			"stateMutability": "nonpayable",
			"type": "function"
		}
	]
}